{
	"ammPair.sol": {
		"AmmPair": {
			"abi": [
				{
					"inputs": [
						{
							"internalType": "address",
							"name": "_token0",
							"type": "address"
						},
						{
							"internalType": "address",
							"name": "_token1",
							"type": "address"
						}
					],
					"stateMutability": "nonpayable",
					"type": "constructor"
				},
				{
					"inputs": [],
					"name": "InsufficientInput",
					"type": "error"
				},
				{
					"inputs": [],
					"name": "InsufficientLiquidity",
					"type": "error"
				},
				{
					"inputs": [],
					"name": "InvalidToken",
					"type": "error"
				},
				{
					"inputs": [],
					"name": "TransferFailed",
					"type": "error"
				},
				{
					"anonymous": false,
					"inputs": [
						{
							"indexed": true,
							"internalType": "address",
							"name": "provider",
							"type": "address"
						},
						{
							"indexed": false,
							"internalType": "uint256",
							"name": "amount0",
							"type": "uint256"
						},
						{
							"indexed": false,
							"internalType": "uint256",
							"name": "amount1",
							"type": "uint256"
						}
					],
					"name": "AddLiquidity",
					"type": "event"
				},
				{
					"anonymous": false,
					"inputs": [
						{
							"indexed": true,
							"internalType": "address",
							"name": "trader",
							"type": "address"
						},
						{
							"indexed": false,
							"internalType": "address",
							"name": "tokenIn",
							"type": "address"
						},
						{
							"indexed": false,
							"internalType": "uint256",
							"name": "amountIn",
							"type": "uint256"
						},
						{
							"indexed": false,
							"internalType": "address",
							"name": "tokenOut",
							"type": "address"
						},
						{
							"indexed": false,
							"internalType": "uint256",
							"name": "amountOut",
							"type": "uint256"
						}
					],
					"name": "Swap",
					"type": "event"
				},
				{
					"anonymous": false,
					"inputs": [
						{
							"indexed": false,
							"internalType": "uint112",
							"name": "r0",
							"type": "uint112"
						},
						{
							"indexed": false,
							"internalType": "uint112",
							"name": "r1",
							"type": "uint112"
						}
					],
					"name": "Sync",
					"type": "event"
				},
				{
					"inputs": [
						{
							"internalType": "uint256",
							"name": "amount0",
							"type": "uint256"
						},
						{
							"internalType": "uint256",
							"name": "amount1",
							"type": "uint256"
						}
					],
					"name": "addLiquidity",
					"outputs": [],
					"stateMutability": "nonpayable",
					"type": "function"
				},
				{
					"inputs": [
						{
							"internalType": "address",
							"name": "tokenIn",
							"type": "address"
						},
						{
							"internalType": "uint256",
							"name": "amountIn",
							"type": "uint256"
						}
					],
					"name": "getAmountOut",
					"outputs": [
						{
							"internalType": "uint256",
							"name": "amountOut",
							"type": "uint256"
						}
					],
					"stateMutability": "view",
					"type": "function"
				},
				{
					"inputs": [],
					"name": "getReserves",
					"outputs": [
						{
							"internalType": "uint112",
							"name": "",
							"type": "uint112"
						},
						{
							"internalType": "uint112",
							"name": "",
							"type": "uint112"
						},
						{
							"internalType": "uint32",
							"name": "",
							"type": "uint32"
						}
					],
					"stateMutability": "view",
					"type": "function"
				},
				{
					"inputs": [
						{
							"internalType": "address",
							"name": "tokenIn",
							"type": "address"
						},
						{
							"internalType": "uint256",
							"name": "amountIn",
							"type": "uint256"
						},
						{
							"internalType": "uint256",
							"name": "minAmountOut",
							"type": "uint256"
						},
						{
							"internalType": "address",
							"name": "to",
							"type": "address"
						}
					],
					"name": "swapExact",
					"outputs": [
						{
							"internalType": "uint256",
							"name": "out",
							"type": "uint256"
						}
					],
					"stateMutability": "nonpayable",
					"type": "function"
				},
				{
					"inputs": [],
					"name": "token0",
					"outputs": [
						{
							"internalType": "address",
							"name": "",
							"type": "address"
						}
					],
					"stateMutability": "view",
					"type": "function"
				},
				{
					"inputs": [],
					"name": "token1",
					"outputs": [
						{
							"internalType": "address",
							"name": "",
							"type": "address"
						}
					],
					"stateMutability": "view",
					"type": "function"
				}
			],
			"devdoc": {
				"kind": "dev",
				"methods": {},
				"version": 1
			},
			"evm": {
				"assembly": "    /* \"ammPair.sol\":849:4782  contract AmmPair {... */\n  mstore(0x40, 0xc0)\n    /* \"ammPair.sol\":1430:1728  constructor(address _token0, address _token1) {... */\n  callvalue\n  dup1\n  iszero\n  tag_1\n  jumpi\n  revert(0x00, 0x00)\ntag_1:\n  pop\n  mload(0x40)\n  sub(codesize, bytecodeSize)\n  dup1\n  bytecodeSize\n  dup4\n  codecopy\n  dup2\n  dup2\n  add\n  0x40\n  mstore\n  dup2\n  add\n  swap1\n  tag_2\n  swap2\n  swap1\n  tag_3\n  jump\t// in\ntag_2:\n    /* \"ammPair.sol\":1505:1512  _token1 */\n  dup1\n    /* \"ammPair.sol\":1494:1512  _token0 != _token1 */\n  0xffffffffffffffffffffffffffffffffffffffff\n  and\n    /* \"ammPair.sol\":1494:1501  _token0 */\n  dup3\n    /* \"ammPair.sol\":1494:1512  _token0 != _token1 */\n  0xffffffffffffffffffffffffffffffffffffffff\n  and\n  sub\n    /* \"ammPair.sol\":1486:1526  require(_token0 != _token1, \"identical\") */\n  tag_6\n  jumpi\n  mload(0x40)\n  0x08c379a000000000000000000000000000000000000000000000000000000000\n  dup2\n  mstore\n  0x04\n  add\n  tag_7\n  swap1\n  tag_8\n  jump\t// in\ntag_7:\n  mload(0x40)\n  dup1\n  swap2\n  sub\n  swap1\n  revert\ntag_6:\n    /* \"ammPair.sol\":1598:1607  address a */\n  0x00\n    /* \"ammPair.sol\":1609:1618  address b */\n  0x00\n    /* \"ammPair.sol\":1632:1639  _token1 */\n  dup3\n    /* \"ammPair.sol\":1622:1639  _token0 < _token1 */\n  0xffffffffffffffffffffffffffffffffffffffff\n  and\n    /* \"ammPair.sol\":1622:1629  _token0 */\n  dup5\n    /* \"ammPair.sol\":1622:1639  _token0 < _token1 */\n  0xffffffffffffffffffffffffffffffffffffffff\n  and\n  lt\n    /* \"ammPair.sol\":1622:1681  _token0 < _token1 ? (_token0, _token1) : (_token1, _token0) */\n  tag_9\n  jumpi\n    /* \"ammPair.sol\":1664:1671  _token1 */\n  dup3\n    /* \"ammPair.sol\":1673:1680  _token0 */\n  dup5\n    /* \"ammPair.sol\":1622:1681  _token0 < _token1 ? (_token0, _token1) : (_token1, _token0) */\n  jump(tag_10)\ntag_9:\n    /* \"ammPair.sol\":1643:1650  _token0 */\n  dup4\n    /* \"ammPair.sol\":1652:1659  _token1 */\n  dup4\n    /* \"ammPair.sol\":1622:1681  _token0 < _token1 ? (_token0, _token1) : (_token1, _token0) */\ntag_10:\n    /* \"ammPair.sol\":1597:1681  (address a, address b) = _token0 < _token1 ? (_token0, _token1) : (_token1, _token0) */\n  swap2\n  pop\n  swap2\n  pop\n    /* \"ammPair.sol\":1700:1701  a */\n  dup2\n    /* \"ammPair.sol\":1691:1701  token0 = a */\n  0xffffffffffffffffffffffffffffffffffffffff\n  and\n  0x80\n  dup2\n  0xffffffffffffffffffffffffffffffffffffffff\n  and\n  dup2\n  mstore\n  pop\n  pop\n    /* \"ammPair.sol\":1720:1721  b */\n  dup1\n    /* \"ammPair.sol\":1711:1721  token1 = b */\n  0xffffffffffffffffffffffffffffffffffffffff\n  and\n  0xa0\n  dup2\n  0xffffffffffffffffffffffffffffffffffffffff\n  and\n  dup2\n  mstore\n  pop\n  pop\n    /* \"ammPair.sol\":1476:1728  {... */\n  pop\n  pop\n    /* \"ammPair.sol\":1430:1728  constructor(address _token0, address _token1) {... */\n  pop\n  pop\n    /* \"ammPair.sol\":849:4782  contract AmmPair {... */\n  jump(tag_11)\n    /* \"#utility.yul\":88:205   */\ntag_13:\n    /* \"#utility.yul\":197:198   */\n  0x00\n    /* \"#utility.yul\":194:195   */\n  0x00\n    /* \"#utility.yul\":187:199   */\n  revert\n    /* \"#utility.yul\":334:460   */\ntag_15:\n    /* \"#utility.yul\":371:378   */\n  0x00\n    /* \"#utility.yul\":411:453   */\n  0xffffffffffffffffffffffffffffffffffffffff\n    /* \"#utility.yul\":404:409   */\n  dup3\n    /* \"#utility.yul\":400:454   */\n  and\n    /* \"#utility.yul\":389:454   */\n  swap1\n  pop\n    /* \"#utility.yul\":334:460   */\n  swap2\n  swap1\n  pop\n  jump\t// out\n    /* \"#utility.yul\":466:562   */\ntag_16:\n    /* \"#utility.yul\":503:510   */\n  0x00\n    /* \"#utility.yul\":532:556   */\n  tag_28\n    /* \"#utility.yul\":550:555   */\n  dup3\n    /* \"#utility.yul\":532:556   */\n  tag_15\n  jump\t// in\ntag_28:\n    /* \"#utility.yul\":521:556   */\n  swap1\n  pop\n    /* \"#utility.yul\":466:562   */\n  swap2\n  swap1\n  pop\n  jump\t// out\n    /* \"#utility.yul\":568:690   */\ntag_17:\n    /* \"#utility.yul\":641:665   */\n  tag_30\n    /* \"#utility.yul\":659:664   */\n  dup2\n    /* \"#utility.yul\":641:665   */\n  tag_16\n  jump\t// in\ntag_30:\n    /* \"#utility.yul\":634:639   */\n  dup2\n    /* \"#utility.yul\":631:666   */\n  eq\n    /* \"#utility.yul\":621:684   */\n  tag_31\n  jumpi\n    /* \"#utility.yul\":680:681   */\n  0x00\n    /* \"#utility.yul\":677:678   */\n  0x00\n    /* \"#utility.yul\":670:682   */\n  revert\n    /* \"#utility.yul\":621:684   */\ntag_31:\n    /* \"#utility.yul\":568:690   */\n  pop\n  jump\t// out\n    /* \"#utility.yul\":696:839   */\ntag_18:\n    /* \"#utility.yul\":753:758   */\n  0x00\n    /* \"#utility.yul\":784:790   */\n  dup2\n    /* \"#utility.yul\":778:791   */\n  mload\n    /* \"#utility.yul\":769:791   */\n  swap1\n  pop\n    /* \"#utility.yul\":800:833   */\n  tag_33\n    /* \"#utility.yul\":827:832   */\n  dup2\n    /* \"#utility.yul\":800:833   */\n  tag_17\n  jump\t// in\ntag_33:\n    /* \"#utility.yul\":696:839   */\n  swap3\n  swap2\n  pop\n  pop\n  jump\t// out\n    /* \"#utility.yul\":845:1352   */\ntag_3:\n    /* \"#utility.yul\":924:930   */\n  0x00\n    /* \"#utility.yul\":932:938   */\n  0x00\n    /* \"#utility.yul\":981:983   */\n  0x40\n    /* \"#utility.yul\":969:978   */\n  dup4\n    /* \"#utility.yul\":960:967   */\n  dup6\n    /* \"#utility.yul\":956:979   */\n  sub\n    /* \"#utility.yul\":952:984   */\n  slt\n    /* \"#utility.yul\":949:1068   */\n  iszero\n  tag_35\n  jumpi\n    /* \"#utility.yul\":987:1066   */\n  tag_36\n  tag_13\n  jump\t// in\ntag_36:\n    /* \"#utility.yul\":949:1068   */\ntag_35:\n    /* \"#utility.yul\":1107:1108   */\n  0x00\n    /* \"#utility.yul\":1132:1196   */\n  tag_37\n    /* \"#utility.yul\":1188:1195   */\n  dup6\n    /* \"#utility.yul\":1179:1185   */\n  dup3\n    /* \"#utility.yul\":1168:1177   */\n  dup7\n    /* \"#utility.yul\":1164:1186   */\n  add\n    /* \"#utility.yul\":1132:1196   */\n  tag_18\n  jump\t// in\ntag_37:\n    /* \"#utility.yul\":1122:1196   */\n  swap3\n  pop\n    /* \"#utility.yul\":1078:1206   */\n  pop\n    /* \"#utility.yul\":1245:1247   */\n  0x20\n    /* \"#utility.yul\":1271:1335   */\n  tag_38\n    /* \"#utility.yul\":1327:1334   */\n  dup6\n    /* \"#utility.yul\":1318:1324   */\n  dup3\n    /* \"#utility.yul\":1307:1316   */\n  dup7\n    /* \"#utility.yul\":1303:1325   */\n  add\n    /* \"#utility.yul\":1271:1335   */\n  tag_18\n  jump\t// in\ntag_38:\n    /* \"#utility.yul\":1261:1335   */\n  swap2\n  pop\n    /* \"#utility.yul\":1216:1345   */\n  pop\n    /* \"#utility.yul\":845:1352   */\n  swap3\n  pop\n  swap3\n  swap1\n  pop\n  jump\t// out\n    /* \"#utility.yul\":1358:1527   */\ntag_19:\n    /* \"#utility.yul\":1442:1453   */\n  0x00\n    /* \"#utility.yul\":1476:1482   */\n  dup3\n    /* \"#utility.yul\":1471:1474   */\n  dup3\n    /* \"#utility.yul\":1464:1483   */\n  mstore\n    /* \"#utility.yul\":1516:1520   */\n  0x20\n    /* \"#utility.yul\":1511:1514   */\n  dup3\n    /* \"#utility.yul\":1507:1521   */\n  add\n    /* \"#utility.yul\":1492:1521   */\n  swap1\n  pop\n    /* \"#utility.yul\":1358:1527   */\n  swap3\n  swap2\n  pop\n  pop\n  jump\t// out\n    /* \"#utility.yul\":1533:1692   */\ntag_20:\n    /* \"#utility.yul\":1673:1684   */\n  0x6964656e746963616c0000000000000000000000000000000000000000000000\n    /* \"#utility.yul\":1669:1670   */\n  0x00\n    /* \"#utility.yul\":1661:1667   */\n  dup3\n    /* \"#utility.yul\":1657:1671   */\n  add\n    /* \"#utility.yul\":1650:1685   */\n  mstore\n    /* \"#utility.yul\":1533:1692   */\n  pop\n  jump\t// out\n    /* \"#utility.yul\":1698:2063   */\ntag_21:\n    /* \"#utility.yul\":1840:1843   */\n  0x00\n    /* \"#utility.yul\":1861:1927   */\n  tag_42\n    /* \"#utility.yul\":1925:1926   */\n  0x09\n    /* \"#utility.yul\":1920:1923   */\n  dup4\n    /* \"#utility.yul\":1861:1927   */\n  tag_19\n  jump\t// in\ntag_42:\n    /* \"#utility.yul\":1854:1927   */\n  swap2\n  pop\n    /* \"#utility.yul\":1936:2029   */\n  tag_43\n    /* \"#utility.yul\":2025:2028   */\n  dup3\n    /* \"#utility.yul\":1936:2029   */\n  tag_20\n  jump\t// in\ntag_43:\n    /* \"#utility.yul\":2054:2056   */\n  0x20\n    /* \"#utility.yul\":2049:2052   */\n  dup3\n    /* \"#utility.yul\":2045:2057   */\n  add\n    /* \"#utility.yul\":2038:2057   */\n  swap1\n  pop\n    /* \"#utility.yul\":1698:2063   */\n  swap2\n  swap1\n  pop\n  jump\t// out\n    /* \"#utility.yul\":2069:2488   */\ntag_8:\n    /* \"#utility.yul\":2235:2239   */\n  0x00\n    /* \"#utility.yul\":2273:2275   */\n  0x20\n    /* \"#utility.yul\":2262:2271   */\n  dup3\n    /* \"#utility.yul\":2258:2276   */\n  add\n    /* \"#utility.yul\":2250:2276   */\n  swap1\n  pop\n    /* \"#utility.yul\":2322:2331   */\n  dup2\n    /* \"#utility.yul\":2316:2320   */\n  dup2\n    /* \"#utility.yul\":2312:2332   */\n  sub\n    /* \"#utility.yul\":2308:2309   */\n  0x00\n    /* \"#utility.yul\":2297:2306   */\n  dup4\n    /* \"#utility.yul\":2293:2310   */\n  add\n    /* \"#utility.yul\":2286:2333   */\n  mstore\n    /* \"#utility.yul\":2350:2481   */\n  tag_45\n    /* \"#utility.yul\":2476:2480   */\n  dup2\n    /* \"#utility.yul\":2350:2481   */\n  tag_21\n  jump\t// in\ntag_45:\n    /* \"#utility.yul\":2342:2481   */\n  swap1\n  pop\n    /* \"#utility.yul\":2069:2488   */\n  swap2\n  swap1\n  pop\n  jump\t// out\n    /* \"ammPair.sol\":849:4782  contract AmmPair {... */\ntag_11:\n  mload(0x80)\n  mload(0xa0)\n  codecopy(0x00, dataOffset(sub_0), dataSize(sub_0))\n  0x00\n  assignImmutable(\"0xd9670a00d025e59e1bd58d53874bea4ab34fea782716e2c168e89a3c8452d3bb\")\n  0x00\n  assignImmutable(\"0x7446b42d7fe1689ec32fc1ca65129d9f21f1979742315d34500a6886f6986bea\")\n  return(0x00, dataSize(sub_0))\nstop\n\nsub_0: assembly {\n        /* \"ammPair.sol\":849:4782  contract AmmPair {... */\n      mstore(0x40, 0x80)\n      callvalue\n      dup1\n      iszero\n      tag_1\n      jumpi\n      revert(0x00, 0x00)\n    tag_1:\n      pop\n      jumpi(tag_2, lt(calldatasize, 0x04))\n      shr(0xe0, calldataload(0x00))\n      dup1\n      0x0902f1ac\n      eq\n      tag_3\n      jumpi\n      dup1\n      0x0dfe1681\n      eq\n      tag_4\n      jumpi\n      dup1\n      0x6d8bb4a3\n      eq\n      tag_5\n      jumpi\n      dup1\n      0x9cd441da\n      eq\n      tag_6\n      jumpi\n      dup1\n      0xca706bcf\n      eq\n      tag_7\n      jumpi\n      dup1\n      0xd21220a7\n      eq\n      tag_8\n      jumpi\n    tag_2:\n      revert(0x00, 0x00)\n        /* \"ammPair.sol\":2046:2180  function getReserves() public view returns (uint112, uint112, uint32) {... */\n    tag_3:\n      tag_9\n      tag_10\n      jump\t// in\n    tag_9:\n      mload(0x40)\n      tag_11\n      swap4\n      swap3\n      swap2\n      swap1\n      tag_12\n      jump\t// in\n    tag_11:\n      mload(0x40)\n      dup1\n      swap2\n      sub\n      swap1\n      return\n        /* \"ammPair.sol\":872:903  address public immutable token0 */\n    tag_4:\n      tag_13\n      tag_14\n      jump\t// in\n    tag_13:\n      mload(0x40)\n      tag_15\n      swap2\n      swap1\n      tag_16\n      jump\t// in\n    tag_15:\n      mload(0x40)\n      dup1\n      swap2\n      sub\n      swap1\n      return\n        /* \"ammPair.sol\":3706:4780  function swapExact(address tokenIn, uint256 amountIn, uint256 minAmountOut, address to) external returns (uint256 out) {... */\n    tag_5:\n      tag_17\n      0x04\n      dup1\n      calldatasize\n      sub\n      dup2\n      add\n      swap1\n      tag_18\n      swap2\n      swap1\n      tag_19\n      jump\t// in\n    tag_18:\n      tag_20\n      jump\t// in\n    tag_17:\n      mload(0x40)\n      tag_21\n      swap2\n      swap1\n      tag_22\n      jump\t// in\n    tag_21:\n      mload(0x40)\n      dup1\n      swap2\n      sub\n      swap1\n      return\n        /* \"ammPair.sol\":2259:2830  function addLiquidity(uint256 amount0, uint256 amount1) external {... */\n    tag_6:\n      tag_23\n      0x04\n      dup1\n      calldatasize\n      sub\n      dup2\n      add\n      swap1\n      tag_24\n      swap2\n      swap1\n      tag_25\n      jump\t// in\n    tag_24:\n      tag_26\n      jump\t// in\n    tag_23:\n      stop\n        /* \"ammPair.sol\":2901:3621  function getAmountOut(address tokenIn, uint256 amountIn) public view returns (uint256 amountOut) {... */\n    tag_7:\n      tag_27\n      0x04\n      dup1\n      calldatasize\n      sub\n      dup2\n      add\n      swap1\n      tag_28\n      swap2\n      swap1\n      tag_29\n      jump\t// in\n    tag_28:\n      tag_30\n      jump\t// in\n    tag_27:\n      mload(0x40)\n      tag_31\n      swap2\n      swap1\n      tag_22\n      jump\t// in\n    tag_31:\n      mload(0x40)\n      dup1\n      swap2\n      sub\n      swap1\n      return\n        /* \"ammPair.sol\":909:940  address public immutable token1 */\n    tag_8:\n      tag_32\n      tag_33\n      jump\t// in\n    tag_32:\n      mload(0x40)\n      tag_34\n      swap2\n      swap1\n      tag_16\n      jump\t// in\n    tag_34:\n      mload(0x40)\n      dup1\n      swap2\n      sub\n      swap1\n      return\n        /* \"ammPair.sol\":2046:2180  function getReserves() public view returns (uint112, uint112, uint32) {... */\n    tag_10:\n        /* \"ammPair.sol\":2090:2097  uint112 */\n      0x00\n        /* \"ammPair.sol\":2099:2106  uint112 */\n      0x00\n        /* \"ammPair.sol\":2108:2114  uint32 */\n      0x00\n        /* \"ammPair.sol\":2134:2142  reserve0 */\n      0x00\n      0x00\n      swap1\n      sload\n      swap1\n      0x0100\n      exp\n      swap1\n      div\n      0xffffffffffffffffffffffffffff\n      and\n        /* \"ammPair.sol\":2144:2152  reserve1 */\n      0x00\n      0x0e\n      swap1\n      sload\n      swap1\n      0x0100\n      exp\n      swap1\n      div\n      0xffffffffffffffffffffffffffff\n      and\n        /* \"ammPair.sol\":2154:2172  blockTimestampLast */\n      0x00\n      0x1c\n      swap1\n      sload\n      swap1\n      0x0100\n      exp\n      swap1\n      div\n      0xffffffff\n      and\n        /* \"ammPair.sol\":2126:2173  return (reserve0, reserve1, blockTimestampLast) */\n      swap3\n      pop\n      swap3\n      pop\n      swap3\n      pop\n        /* \"ammPair.sol\":2046:2180  function getReserves() public view returns (uint112, uint112, uint32) {... */\n      swap1\n      swap2\n      swap3\n      jump\t// out\n        /* \"ammPair.sol\":872:903  address public immutable token0 */\n    tag_14:\n      immutable(\"0x7446b42d7fe1689ec32fc1ca65129d9f21f1979742315d34500a6886f6986bea\")\n      dup2\n      jump\t// out\n        /* \"ammPair.sol\":3706:4780  function swapExact(address tokenIn, uint256 amountIn, uint256 minAmountOut, address to) external returns (uint256 out) {... */\n    tag_20:\n        /* \"ammPair.sol\":3812:3823  uint256 out */\n      0x00\n        /* \"ammPair.sol\":3841:3872  getAmountOut(tokenIn, amountIn) */\n      tag_37\n        /* \"ammPair.sol\":3854:3861  tokenIn */\n      dup6\n        /* \"ammPair.sol\":3863:3871  amountIn */\n      dup6\n        /* \"ammPair.sol\":3841:3853  getAmountOut */\n      tag_30\n        /* \"ammPair.sol\":3841:3872  getAmountOut(tokenIn, amountIn) */\n      jump\t// in\n    tag_37:\n        /* \"ammPair.sol\":3835:3872  out = getAmountOut(tokenIn, amountIn) */\n      swap1\n      pop\n        /* \"ammPair.sol\":3897:3909  minAmountOut */\n      dup3\n        /* \"ammPair.sol\":3890:3893  out */\n      dup2\n        /* \"ammPair.sol\":3890:3909  out >= minAmountOut */\n      lt\n      iszero\n        /* \"ammPair.sol\":3882:3922  require(out >= minAmountOut, \"slippage\") */\n      tag_38\n      jumpi\n      mload(0x40)\n      0x08c379a000000000000000000000000000000000000000000000000000000000\n      dup2\n      mstore\n      0x04\n      add\n      tag_39\n      swap1\n      tag_40\n      jump\t// in\n    tag_39:\n      mload(0x40)\n      dup1\n      swap2\n      sub\n      swap1\n      revert\n    tag_38:\n        /* \"ammPair.sol\":3948:3954  token0 */\n      immutable(\"0x7446b42d7fe1689ec32fc1ca65129d9f21f1979742315d34500a6886f6986bea\")\n        /* \"ammPair.sol\":3937:3954  tokenIn == token0 */\n      0xffffffffffffffffffffffffffffffffffffffff\n      and\n        /* \"ammPair.sol\":3937:3944  tokenIn */\n      dup6\n        /* \"ammPair.sol\":3937:3954  tokenIn == token0 */\n      0xffffffffffffffffffffffffffffffffffffffff\n      and\n      sub\n        /* \"ammPair.sol\":3933:4477  if (tokenIn == token0) {... */\n      tag_41\n      jumpi\n        /* \"ammPair.sol\":4032:4038  token0 */\n      immutable(\"0x7446b42d7fe1689ec32fc1ca65129d9f21f1979742315d34500a6886f6986bea\")\n        /* \"ammPair.sol\":4025:4052  IERC20(token0).transferFrom */\n      0xffffffffffffffffffffffffffffffffffffffff\n      and\n      0x23b872dd\n        /* \"ammPair.sol\":4053:4063  msg.sender */\n      caller\n        /* \"ammPair.sol\":4073:4077  this */\n      address\n        /* \"ammPair.sol\":4080:4088  amountIn */\n      dup8\n        /* \"ammPair.sol\":4025:4089  IERC20(token0).transferFrom(msg.sender, address(this), amountIn) */\n      mload(0x40)\n      dup5\n      0xffffffff\n      and\n      0xe0\n      shl\n      dup2\n      mstore\n      0x04\n      add\n      tag_42\n      swap4\n      swap3\n      swap2\n      swap1\n      tag_43\n      jump\t// in\n    tag_42:\n      0x20\n      mload(0x40)\n      dup1\n      dup4\n      sub\n      dup2\n      0x00\n      dup8\n      gas\n      call\n      iszero\n      dup1\n      iszero\n      tag_45\n      jumpi\n      returndatacopy(0x00, 0x00, returndatasize)\n      revert(0x00, returndatasize)\n    tag_45:\n      pop\n      pop\n      pop\n      pop\n      mload(0x40)\n      returndatasize\n      not(0x1f)\n      0x1f\n      dup3\n      add\n      and\n      dup3\n      add\n      dup1\n      0x40\n      mstore\n      pop\n      dup2\n      add\n      swap1\n      tag_46\n      swap2\n      swap1\n      tag_47\n      jump\t// in\n    tag_46:\n        /* \"ammPair.sol\":4020:4114  if (!IERC20(token0).transferFrom(msg.sender, address(this), amountIn)) revert TransferFailed() */\n      tag_48\n      jumpi\n        /* \"ammPair.sol\":4098:4114  TransferFailed() */\n      mload(0x40)\n      0x90b8ec1800000000000000000000000000000000000000000000000000000000\n      dup2\n      mstore\n      0x04\n      add\n      mload(0x40)\n      dup1\n      swap2\n      sub\n      swap1\n      revert\n        /* \"ammPair.sol\":4020:4114  if (!IERC20(token0).transferFrom(msg.sender, address(this), amountIn)) revert TransferFailed() */\n    tag_48:\n        /* \"ammPair.sol\":4140:4146  token1 */\n      immutable(\"0xd9670a00d025e59e1bd58d53874bea4ab34fea782716e2c168e89a3c8452d3bb\")\n        /* \"ammPair.sol\":4133:4156  IERC20(token1).transfer */\n      0xffffffffffffffffffffffffffffffffffffffff\n      and\n      0xa9059cbb\n        /* \"ammPair.sol\":4157:4159  to */\n      dup4\n        /* \"ammPair.sol\":4161:4164  out */\n      dup4\n        /* \"ammPair.sol\":4133:4165  IERC20(token1).transfer(to, out) */\n      mload(0x40)\n      dup4\n      0xffffffff\n      and\n      0xe0\n      shl\n      dup2\n      mstore\n      0x04\n      add\n      tag_49\n      swap3\n      swap2\n      swap1\n      tag_50\n      jump\t// in\n    tag_49:\n      0x20\n      mload(0x40)\n      dup1\n      dup4\n      sub\n      dup2\n      0x00\n      dup8\n      gas\n      call\n      iszero\n      dup1\n      iszero\n      tag_52\n      jumpi\n      returndatacopy(0x00, 0x00, returndatasize)\n      revert(0x00, returndatasize)\n    tag_52:\n      pop\n      pop\n      pop\n      pop\n      mload(0x40)\n      returndatasize\n      not(0x1f)\n      0x1f\n      dup3\n      add\n      and\n      dup3\n      add\n      dup1\n      0x40\n      mstore\n      pop\n      dup2\n      add\n      swap1\n      tag_53\n      swap2\n      swap1\n      tag_47\n      jump\t// in\n    tag_53:\n        /* \"ammPair.sol\":4128:4190  if (!IERC20(token1).transfer(to, out)) revert TransferFailed() */\n      tag_54\n      jumpi\n        /* \"ammPair.sol\":4174:4190  TransferFailed() */\n      mload(0x40)\n      0x90b8ec1800000000000000000000000000000000000000000000000000000000\n      dup2\n      mstore\n      0x04\n      add\n      mload(0x40)\n      dup1\n      swap2\n      sub\n      swap1\n      revert\n        /* \"ammPair.sol\":4128:4190  if (!IERC20(token1).transfer(to, out)) revert TransferFailed() */\n    tag_54:\n        /* \"ammPair.sol\":3933:4477  if (tokenIn == token0) {... */\n      jump(tag_55)\n    tag_41:\n        /* \"ammPair.sol\":4222:4228  token1 */\n      immutable(\"0xd9670a00d025e59e1bd58d53874bea4ab34fea782716e2c168e89a3c8452d3bb\")\n        /* \"ammPair.sol\":4211:4228  tokenIn == token1 */\n      0xffffffffffffffffffffffffffffffffffffffff\n      and\n        /* \"ammPair.sol\":4211:4218  tokenIn */\n      dup6\n        /* \"ammPair.sol\":4211:4228  tokenIn == token1 */\n      0xffffffffffffffffffffffffffffffffffffffff\n      and\n      sub\n        /* \"ammPair.sol\":4207:4477  if (tokenIn == token1) {... */\n      tag_56\n      jumpi\n        /* \"ammPair.sol\":4256:4262  token1 */\n      immutable(\"0xd9670a00d025e59e1bd58d53874bea4ab34fea782716e2c168e89a3c8452d3bb\")\n        /* \"ammPair.sol\":4249:4276  IERC20(token1).transferFrom */\n      0xffffffffffffffffffffffffffffffffffffffff\n      and\n      0x23b872dd\n        /* \"ammPair.sol\":4277:4287  msg.sender */\n      caller\n        /* \"ammPair.sol\":4297:4301  this */\n      address\n        /* \"ammPair.sol\":4304:4312  amountIn */\n      dup8\n        /* \"ammPair.sol\":4249:4313  IERC20(token1).transferFrom(msg.sender, address(this), amountIn) */\n      mload(0x40)\n      dup5\n      0xffffffff\n      and\n      0xe0\n      shl\n      dup2\n      mstore\n      0x04\n      add\n      tag_57\n      swap4\n      swap3\n      swap2\n      swap1\n      tag_43\n      jump\t// in\n    tag_57:\n      0x20\n      mload(0x40)\n      dup1\n      dup4\n      sub\n      dup2\n      0x00\n      dup8\n      gas\n      call\n      iszero\n      dup1\n      iszero\n      tag_59\n      jumpi\n      returndatacopy(0x00, 0x00, returndatasize)\n      revert(0x00, returndatasize)\n    tag_59:\n      pop\n      pop\n      pop\n      pop\n      mload(0x40)\n      returndatasize\n      not(0x1f)\n      0x1f\n      dup3\n      add\n      and\n      dup3\n      add\n      dup1\n      0x40\n      mstore\n      pop\n      dup2\n      add\n      swap1\n      tag_60\n      swap2\n      swap1\n      tag_47\n      jump\t// in\n    tag_60:\n        /* \"ammPair.sol\":4244:4338  if (!IERC20(token1).transferFrom(msg.sender, address(this), amountIn)) revert TransferFailed() */\n      tag_61\n      jumpi\n        /* \"ammPair.sol\":4322:4338  TransferFailed() */\n      mload(0x40)\n      0x90b8ec1800000000000000000000000000000000000000000000000000000000\n      dup2\n      mstore\n      0x04\n      add\n      mload(0x40)\n      dup1\n      swap2\n      sub\n      swap1\n      revert\n        /* \"ammPair.sol\":4244:4338  if (!IERC20(token1).transferFrom(msg.sender, address(this), amountIn)) revert TransferFailed() */\n    tag_61:\n        /* \"ammPair.sol\":4364:4370  token0 */\n      immutable(\"0x7446b42d7fe1689ec32fc1ca65129d9f21f1979742315d34500a6886f6986bea\")\n        /* \"ammPair.sol\":4357:4380  IERC20(token0).transfer */\n      0xffffffffffffffffffffffffffffffffffffffff\n      and\n      0xa9059cbb\n        /* \"ammPair.sol\":4381:4383  to */\n      dup4\n        /* \"ammPair.sol\":4385:4388  out */\n      dup4\n        /* \"ammPair.sol\":4357:4389  IERC20(token0).transfer(to, out) */\n      mload(0x40)\n      dup4\n      0xffffffff\n      and\n      0xe0\n      shl\n      dup2\n      mstore\n      0x04\n      add\n      tag_62\n      swap3\n      swap2\n      swap1\n      tag_50\n      jump\t// in\n    tag_62:\n      0x20\n      mload(0x40)\n      dup1\n      dup4\n      sub\n      dup2\n      0x00\n      dup8\n      gas\n      call\n      iszero\n      dup1\n      iszero\n      tag_64\n      jumpi\n      returndatacopy(0x00, 0x00, returndatasize)\n      revert(0x00, returndatasize)\n    tag_64:\n      pop\n      pop\n      pop\n      pop\n      mload(0x40)\n      returndatasize\n      not(0x1f)\n      0x1f\n      dup3\n      add\n      and\n      dup3\n      add\n      dup1\n      0x40\n      mstore\n      pop\n      dup2\n      add\n      swap1\n      tag_65\n      swap2\n      swap1\n      tag_47\n      jump\t// in\n    tag_65:\n        /* \"ammPair.sol\":4352:4414  if (!IERC20(token0).transfer(to, out)) revert TransferFailed() */\n      tag_66\n      jumpi\n        /* \"ammPair.sol\":4398:4414  TransferFailed() */\n      mload(0x40)\n      0x90b8ec1800000000000000000000000000000000000000000000000000000000\n      dup2\n      mstore\n      0x04\n      add\n      mload(0x40)\n      dup1\n      swap2\n      sub\n      swap1\n      revert\n        /* \"ammPair.sol\":4352:4414  if (!IERC20(token0).transfer(to, out)) revert TransferFailed() */\n    tag_66:\n        /* \"ammPair.sol\":4207:4477  if (tokenIn == token1) {... */\n      jump(tag_67)\n    tag_56:\n        /* \"ammPair.sol\":4452:4466  InvalidToken() */\n      mload(0x40)\n      0xc1ab6dc100000000000000000000000000000000000000000000000000000000\n      dup2\n      mstore\n      0x04\n      add\n      mload(0x40)\n      dup1\n      swap2\n      sub\n      swap1\n      revert\n        /* \"ammPair.sol\":4207:4477  if (tokenIn == token1) {... */\n    tag_67:\n        /* \"ammPair.sol\":3933:4477  if (tokenIn == token0) {... */\n    tag_55:\n        /* \"ammPair.sol\":4533:4545  uint256 bal0 */\n      0x00\n        /* \"ammPair.sol\":4555:4561  token0 */\n      immutable(\"0x7446b42d7fe1689ec32fc1ca65129d9f21f1979742315d34500a6886f6986bea\")\n        /* \"ammPair.sol\":4548:4572  IERC20(token0).balanceOf */\n      0xffffffffffffffffffffffffffffffffffffffff\n      and\n      0x70a08231\n        /* \"ammPair.sol\":4581:4585  this */\n      address\n        /* \"ammPair.sol\":4548:4587  IERC20(token0).balanceOf(address(this)) */\n      mload(0x40)\n      dup3\n      0xffffffff\n      and\n      0xe0\n      shl\n      dup2\n      mstore\n      0x04\n      add\n      tag_68\n      swap2\n      swap1\n      tag_16\n      jump\t// in\n    tag_68:\n      0x20\n      mload(0x40)\n      dup1\n      dup4\n      sub\n      dup2\n      dup7\n      gas\n      staticcall\n      iszero\n      dup1\n      iszero\n      tag_70\n      jumpi\n      returndatacopy(0x00, 0x00, returndatasize)\n      revert(0x00, returndatasize)\n    tag_70:\n      pop\n      pop\n      pop\n      pop\n      mload(0x40)\n      returndatasize\n      not(0x1f)\n      0x1f\n      dup3\n      add\n      and\n      dup3\n      add\n      dup1\n      0x40\n      mstore\n      pop\n      dup2\n      add\n      swap1\n      tag_71\n      swap2\n      swap1\n      tag_72\n      jump\t// in\n    tag_71:\n        /* \"ammPair.sol\":4533:4587  uint256 bal0 = IERC20(token0).balanceOf(address(this)) */\n      swap1\n      pop\n        /* \"ammPair.sol\":4597:4609  uint256 bal1 */\n      0x00\n        /* \"ammPair.sol\":4619:4625  token1 */\n      immutable(\"0xd9670a00d025e59e1bd58d53874bea4ab34fea782716e2c168e89a3c8452d3bb\")\n        /* \"ammPair.sol\":4612:4636  IERC20(token1).balanceOf */\n      0xffffffffffffffffffffffffffffffffffffffff\n      and\n      0x70a08231\n        /* \"ammPair.sol\":4645:4649  this */\n      address\n        /* \"ammPair.sol\":4612:4651  IERC20(token1).balanceOf(address(this)) */\n      mload(0x40)\n      dup3\n      0xffffffff\n      and\n      0xe0\n      shl\n      dup2\n      mstore\n      0x04\n      add\n      tag_73\n      swap2\n      swap1\n      tag_16\n      jump\t// in\n    tag_73:\n      0x20\n      mload(0x40)\n      dup1\n      dup4\n      sub\n      dup2\n      dup7\n      gas\n      staticcall\n      iszero\n      dup1\n      iszero\n      tag_75\n      jumpi\n      returndatacopy(0x00, 0x00, returndatasize)\n      revert(0x00, returndatasize)\n    tag_75:\n      pop\n      pop\n      pop\n      pop\n      mload(0x40)\n      returndatasize\n      not(0x1f)\n      0x1f\n      dup3\n      add\n      and\n      dup3\n      add\n      dup1\n      0x40\n      mstore\n      pop\n      dup2\n      add\n      swap1\n      tag_76\n      swap2\n      swap1\n      tag_72\n      jump\t// in\n    tag_76:\n        /* \"ammPair.sol\":4597:4651  uint256 bal1 = IERC20(token1).balanceOf(address(this)) */\n      swap1\n      pop\n        /* \"ammPair.sol\":4661:4680  _update(bal0, bal1) */\n      tag_77\n        /* \"ammPair.sol\":4669:4673  bal0 */\n      dup3\n        /* \"ammPair.sol\":4675:4679  bal1 */\n      dup3\n        /* \"ammPair.sol\":4661:4668  _update */\n      tag_78\n        /* \"ammPair.sol\":4661:4680  _update(bal0, bal1) */\n      jump\t// in\n    tag_77:\n        /* \"ammPair.sol\":4701:4711  msg.sender */\n      caller\n        /* \"ammPair.sol\":4696:4773  Swap(msg.sender, tokenIn, amountIn, tokenIn == token0 ? token1 : token0, out) */\n      0xffffffffffffffffffffffffffffffffffffffff\n      and\n      0x5380cf97d8f645d3c4896da60c053458dca03a3a31cec642ac80e1ddf0d8d02a\n        /* \"ammPair.sol\":4713:4720  tokenIn */\n      dup9\n        /* \"ammPair.sol\":4722:4730  amountIn */\n      dup9\n        /* \"ammPair.sol\":4743:4749  token0 */\n      immutable(\"0x7446b42d7fe1689ec32fc1ca65129d9f21f1979742315d34500a6886f6986bea\")\n        /* \"ammPair.sol\":4732:4749  tokenIn == token0 */\n      0xffffffffffffffffffffffffffffffffffffffff\n      and\n        /* \"ammPair.sol\":4732:4739  tokenIn */\n      dup12\n        /* \"ammPair.sol\":4732:4749  tokenIn == token0 */\n      0xffffffffffffffffffffffffffffffffffffffff\n      and\n      eq\n        /* \"ammPair.sol\":4732:4767  tokenIn == token0 ? token1 : token0 */\n      tag_79\n      jumpi\n        /* \"ammPair.sol\":4761:4767  token0 */\n      immutable(\"0x7446b42d7fe1689ec32fc1ca65129d9f21f1979742315d34500a6886f6986bea\")\n        /* \"ammPair.sol\":4732:4767  tokenIn == token0 ? token1 : token0 */\n      jump(tag_80)\n    tag_79:\n        /* \"ammPair.sol\":4752:4758  token1 */\n      immutable(\"0xd9670a00d025e59e1bd58d53874bea4ab34fea782716e2c168e89a3c8452d3bb\")\n        /* \"ammPair.sol\":4732:4767  tokenIn == token0 ? token1 : token0 */\n    tag_80:\n        /* \"ammPair.sol\":4769:4772  out */\n      dup8\n        /* \"ammPair.sol\":4696:4773  Swap(msg.sender, tokenIn, amountIn, tokenIn == token0 ? token1 : token0, out) */\n      mload(0x40)\n      tag_81\n      swap5\n      swap4\n      swap3\n      swap2\n      swap1\n      tag_82\n      jump\t// in\n    tag_81:\n      mload(0x40)\n      dup1\n      swap2\n      sub\n      swap1\n      log2\n        /* \"ammPair.sol\":3825:4780  {... */\n      pop\n      pop\n        /* \"ammPair.sol\":3706:4780  function swapExact(address tokenIn, uint256 amountIn, uint256 minAmountOut, address to) external returns (uint256 out) {... */\n      swap5\n      swap4\n      pop\n      pop\n      pop\n      pop\n      jump\t// out\n        /* \"ammPair.sol\":2259:2830  function addLiquidity(uint256 amount0, uint256 amount1) external {... */\n    tag_26:\n        /* \"ammPair.sol\":2381:2387  token0 */\n      immutable(\"0x7446b42d7fe1689ec32fc1ca65129d9f21f1979742315d34500a6886f6986bea\")\n        /* \"ammPair.sol\":2374:2401  IERC20(token0).transferFrom */\n      0xffffffffffffffffffffffffffffffffffffffff\n      and\n      0x23b872dd\n        /* \"ammPair.sol\":2402:2412  msg.sender */\n      caller\n        /* \"ammPair.sol\":2422:2426  this */\n      address\n        /* \"ammPair.sol\":2429:2436  amount0 */\n      dup6\n        /* \"ammPair.sol\":2374:2437  IERC20(token0).transferFrom(msg.sender, address(this), amount0) */\n      mload(0x40)\n      dup5\n      0xffffffff\n      and\n      0xe0\n      shl\n      dup2\n      mstore\n      0x04\n      add\n      tag_84\n      swap4\n      swap3\n      swap2\n      swap1\n      tag_43\n      jump\t// in\n    tag_84:\n      0x20\n      mload(0x40)\n      dup1\n      dup4\n      sub\n      dup2\n      0x00\n      dup8\n      gas\n      call\n      iszero\n      dup1\n      iszero\n      tag_86\n      jumpi\n      returndatacopy(0x00, 0x00, returndatasize)\n      revert(0x00, returndatasize)\n    tag_86:\n      pop\n      pop\n      pop\n      pop\n      mload(0x40)\n      returndatasize\n      not(0x1f)\n      0x1f\n      dup3\n      add\n      and\n      dup3\n      add\n      dup1\n      0x40\n      mstore\n      pop\n      dup2\n      add\n      swap1\n      tag_87\n      swap2\n      swap1\n      tag_47\n      jump\t// in\n    tag_87:\n        /* \"ammPair.sol\":2369:2462  if (!IERC20(token0).transferFrom(msg.sender, address(this), amount0)) revert TransferFailed() */\n      tag_88\n      jumpi\n        /* \"ammPair.sol\":2446:2462  TransferFailed() */\n      mload(0x40)\n      0x90b8ec1800000000000000000000000000000000000000000000000000000000\n      dup2\n      mstore\n      0x04\n      add\n      mload(0x40)\n      dup1\n      swap2\n      sub\n      swap1\n      revert\n        /* \"ammPair.sol\":2369:2462  if (!IERC20(token0).transferFrom(msg.sender, address(this), amount0)) revert TransferFailed() */\n    tag_88:\n        /* \"ammPair.sol\":2484:2490  token1 */\n      immutable(\"0xd9670a00d025e59e1bd58d53874bea4ab34fea782716e2c168e89a3c8452d3bb\")\n        /* \"ammPair.sol\":2477:2504  IERC20(token1).transferFrom */\n      0xffffffffffffffffffffffffffffffffffffffff\n      and\n      0x23b872dd\n        /* \"ammPair.sol\":2505:2515  msg.sender */\n      caller\n        /* \"ammPair.sol\":2525:2529  this */\n      address\n        /* \"ammPair.sol\":2532:2539  amount1 */\n      dup5\n        /* \"ammPair.sol\":2477:2540  IERC20(token1).transferFrom(msg.sender, address(this), amount1) */\n      mload(0x40)\n      dup5\n      0xffffffff\n      and\n      0xe0\n      shl\n      dup2\n      mstore\n      0x04\n      add\n      tag_89\n      swap4\n      swap3\n      swap2\n      swap1\n      tag_43\n      jump\t// in\n    tag_89:\n      0x20\n      mload(0x40)\n      dup1\n      dup4\n      sub\n      dup2\n      0x00\n      dup8\n      gas\n      call\n      iszero\n      dup1\n      iszero\n      tag_91\n      jumpi\n      returndatacopy(0x00, 0x00, returndatasize)\n      revert(0x00, returndatasize)\n    tag_91:\n      pop\n      pop\n      pop\n      pop\n      mload(0x40)\n      returndatasize\n      not(0x1f)\n      0x1f\n      dup3\n      add\n      and\n      dup3\n      add\n      dup1\n      0x40\n      mstore\n      pop\n      dup2\n      add\n      swap1\n      tag_92\n      swap2\n      swap1\n      tag_47\n      jump\t// in\n    tag_92:\n        /* \"ammPair.sol\":2472:2565  if (!IERC20(token1).transferFrom(msg.sender, address(this), amount1)) revert TransferFailed() */\n      tag_93\n      jumpi\n        /* \"ammPair.sol\":2549:2565  TransferFailed() */\n      mload(0x40)\n      0x90b8ec1800000000000000000000000000000000000000000000000000000000\n      dup2\n      mstore\n      0x04\n      add\n      mload(0x40)\n      dup1\n      swap2\n      sub\n      swap1\n      revert\n        /* \"ammPair.sol\":2472:2565  if (!IERC20(token1).transferFrom(msg.sender, address(this), amount1)) revert TransferFailed() */\n    tag_93:\n        /* \"ammPair.sol\":2604:2614  uint112 r0 */\n      0x00\n        /* \"ammPair.sol\":2616:2626  uint112 r1 */\n      0x00\n        /* \"ammPair.sol\":2631:2644  getReserves() */\n      tag_94\n        /* \"ammPair.sol\":2631:2642  getReserves */\n      tag_10\n        /* \"ammPair.sol\":2631:2644  getReserves() */\n      jump\t// in\n    tag_94:\n        /* \"ammPair.sol\":2603:2644  (uint112 r0, uint112 r1,) = getReserves() */\n      pop\n      swap2\n      pop\n      swap2\n      pop\n        /* \"ammPair.sol\":2654:2666  uint256 bal0 */\n      0x00\n        /* \"ammPair.sol\":2683:2690  amount0 */\n      dup5\n        /* \"ammPair.sol\":2677:2679  r0 */\n      dup4\n        /* \"ammPair.sol\":2669:2680  uint256(r0) */\n      0xffffffffffffffffffffffffffff\n      and\n        /* \"ammPair.sol\":2669:2690  uint256(r0) + amount0 */\n      tag_95\n      swap2\n      swap1\n      tag_96\n      jump\t// in\n    tag_95:\n        /* \"ammPair.sol\":2654:2690  uint256 bal0 = uint256(r0) + amount0 */\n      swap1\n      pop\n        /* \"ammPair.sol\":2700:2712  uint256 bal1 */\n      0x00\n        /* \"ammPair.sol\":2729:2736  amount1 */\n      dup5\n        /* \"ammPair.sol\":2723:2725  r1 */\n      dup4\n        /* \"ammPair.sol\":2715:2726  uint256(r1) */\n      0xffffffffffffffffffffffffffff\n      and\n        /* \"ammPair.sol\":2715:2736  uint256(r1) + amount1 */\n      tag_97\n      swap2\n      swap1\n      tag_96\n      jump\t// in\n    tag_97:\n        /* \"ammPair.sol\":2700:2736  uint256 bal1 = uint256(r1) + amount1 */\n      swap1\n      pop\n        /* \"ammPair.sol\":2746:2765  _update(bal0, bal1) */\n      tag_98\n        /* \"ammPair.sol\":2754:2758  bal0 */\n      dup3\n        /* \"ammPair.sol\":2760:2764  bal1 */\n      dup3\n        /* \"ammPair.sol\":2746:2753  _update */\n      tag_78\n        /* \"ammPair.sol\":2746:2765  _update(bal0, bal1) */\n      jump\t// in\n    tag_98:\n        /* \"ammPair.sol\":2794:2804  msg.sender */\n      caller\n        /* \"ammPair.sol\":2781:2823  AddLiquidity(msg.sender, amount0, amount1) */\n      0xffffffffffffffffffffffffffffffffffffffff\n      and\n      0x06239653922ac7bea6aa2b19dc486b9361821d37712eb796adfd38d81de278ca\n        /* \"ammPair.sol\":2806:2813  amount0 */\n      dup8\n        /* \"ammPair.sol\":2815:2822  amount1 */\n      dup8\n        /* \"ammPair.sol\":2781:2823  AddLiquidity(msg.sender, amount0, amount1) */\n      mload(0x40)\n      tag_99\n      swap3\n      swap2\n      swap1\n      tag_100\n      jump\t// in\n    tag_99:\n      mload(0x40)\n      dup1\n      swap2\n      sub\n      swap1\n      log2\n        /* \"ammPair.sol\":2324:2830  {... */\n      pop\n      pop\n      pop\n      pop\n        /* \"ammPair.sol\":2259:2830  function addLiquidity(uint256 amount0, uint256 amount1) external {... */\n      pop\n      pop\n      jump\t// out\n        /* \"ammPair.sol\":2901:3621  function getAmountOut(address tokenIn, uint256 amountIn) public view returns (uint256 amountOut) {... */\n    tag_30:\n        /* \"ammPair.sol\":2979:2996  uint256 amountOut */\n      0x00\n        /* \"ammPair.sol\":3024:3025  0 */\n      0x00\n        /* \"ammPair.sol\":3012:3020  amountIn */\n      dup3\n        /* \"ammPair.sol\":3012:3025  amountIn == 0 */\n      sub\n        /* \"ammPair.sol\":3008:3053  if (amountIn == 0) revert InsufficientInput() */\n      tag_102\n      jumpi\n        /* \"ammPair.sol\":3034:3053  InsufficientInput() */\n      mload(0x40)\n      0xf8b3bb6100000000000000000000000000000000000000000000000000000000\n      dup2\n      mstore\n      0x04\n      add\n      mload(0x40)\n      dup1\n      swap2\n      sub\n      swap1\n      revert\n        /* \"ammPair.sol\":3008:3053  if (amountIn == 0) revert InsufficientInput() */\n    tag_102:\n        /* \"ammPair.sol\":3064:3074  uint112 r0 */\n      0x00\n        /* \"ammPair.sol\":3076:3086  uint112 r1 */\n      0x00\n        /* \"ammPair.sol\":3091:3104  getReserves() */\n      tag_103\n        /* \"ammPair.sol\":3091:3102  getReserves */\n      tag_10\n        /* \"ammPair.sol\":3091:3104  getReserves() */\n      jump\t// in\n    tag_103:\n        /* \"ammPair.sol\":3063:3104  (uint112 r0, uint112 r1,) = getReserves() */\n      pop\n      swap2\n      pop\n      swap2\n      pop\n        /* \"ammPair.sol\":3124:3125  0 */\n      0x00\n        /* \"ammPair.sol\":3118:3120  r0 */\n      dup3\n        /* \"ammPair.sol\":3118:3125  r0 == 0 */\n      0xffffffffffffffffffffffffffff\n      and\n      eq\n        /* \"ammPair.sol\":3118:3136  r0 == 0 || r1 == 0 */\n      dup1\n      tag_104\n      jumpi\n      pop\n        /* \"ammPair.sol\":3135:3136  0 */\n      0x00\n        /* \"ammPair.sol\":3129:3131  r1 */\n      dup2\n        /* \"ammPair.sol\":3129:3136  r1 == 0 */\n      0xffffffffffffffffffffffffffff\n      and\n      eq\n        /* \"ammPair.sol\":3118:3136  r0 == 0 || r1 == 0 */\n    tag_104:\n        /* \"ammPair.sol\":3114:3168  if (r0 == 0 || r1 == 0) revert InsufficientLiquidity() */\n      iszero\n      tag_105\n      jumpi\n        /* \"ammPair.sol\":3145:3168  InsufficientLiquidity() */\n      mload(0x40)\n      0xbb55fd2700000000000000000000000000000000000000000000000000000000\n      dup2\n      mstore\n      0x04\n      add\n      mload(0x40)\n      dup1\n      swap2\n      sub\n      swap1\n      revert\n        /* \"ammPair.sol\":3114:3168  if (r0 == 0 || r1 == 0) revert InsufficientLiquidity() */\n    tag_105:\n        /* \"ammPair.sol\":3179:3189  bool inIs0 */\n      0x00\n        /* \"ammPair.sol\":3203:3209  token0 */\n      immutable(\"0x7446b42d7fe1689ec32fc1ca65129d9f21f1979742315d34500a6886f6986bea\")\n        /* \"ammPair.sol\":3192:3209  tokenIn == token0 */\n      0xffffffffffffffffffffffffffffffffffffffff\n      and\n        /* \"ammPair.sol\":3192:3199  tokenIn */\n      dup7\n        /* \"ammPair.sol\":3192:3209  tokenIn == token0 */\n      0xffffffffffffffffffffffffffffffffffffffff\n      and\n      eq\n        /* \"ammPair.sol\":3179:3209  bool inIs0 = tokenIn == token0 */\n      swap1\n      pop\n        /* \"ammPair.sol\":3219:3229  bool inIs1 */\n      0x00\n        /* \"ammPair.sol\":3243:3249  token1 */\n      immutable(\"0xd9670a00d025e59e1bd58d53874bea4ab34fea782716e2c168e89a3c8452d3bb\")\n        /* \"ammPair.sol\":3232:3249  tokenIn == token1 */\n      0xffffffffffffffffffffffffffffffffffffffff\n      and\n        /* \"ammPair.sol\":3232:3239  tokenIn */\n      dup8\n        /* \"ammPair.sol\":3232:3249  tokenIn == token1 */\n      0xffffffffffffffffffffffffffffffffffffffff\n      and\n      eq\n        /* \"ammPair.sol\":3219:3249  bool inIs1 = tokenIn == token1 */\n      swap1\n      pop\n        /* \"ammPair.sol\":3264:3269  inIs0 */\n      dup2\n        /* \"ammPair.sol\":3263:3269  !inIs0 */\n      iszero\n        /* \"ammPair.sol\":3263:3279  !inIs0 && !inIs1 */\n      dup1\n      iszero\n      tag_106\n      jumpi\n      pop\n        /* \"ammPair.sol\":3274:3279  inIs1 */\n      dup1\n        /* \"ammPair.sol\":3273:3279  !inIs1 */\n      iszero\n        /* \"ammPair.sol\":3263:3279  !inIs0 && !inIs1 */\n    tag_106:\n        /* \"ammPair.sol\":3259:3302  if (!inIs0 && !inIs1) revert InvalidToken() */\n      iszero\n      tag_107\n      jumpi\n        /* \"ammPair.sol\":3288:3302  InvalidToken() */\n      mload(0x40)\n      0xc1ab6dc100000000000000000000000000000000000000000000000000000000\n      dup2\n      mstore\n      0x04\n      add\n      mload(0x40)\n      dup1\n      swap2\n      sub\n      swap1\n      revert\n        /* \"ammPair.sol\":3259:3302  if (!inIs0 && !inIs1) revert InvalidToken() */\n    tag_107:\n        /* \"ammPair.sol\":3314:3331  uint256 reserveIn */\n      0x00\n        /* \"ammPair.sol\":3333:3351  uint256 reserveOut */\n      0x00\n        /* \"ammPair.sol\":3355:3360  inIs0 */\n      dup4\n        /* \"ammPair.sol\":3355:3382  inIs0 ? (r0, r1) : (r1, r0) */\n      tag_108\n      jumpi\n        /* \"ammPair.sol\":3375:3377  r1 */\n      dup5\n        /* \"ammPair.sol\":3379:3381  r0 */\n      dup7\n        /* \"ammPair.sol\":3355:3382  inIs0 ? (r0, r1) : (r1, r0) */\n      jump(tag_109)\n    tag_108:\n        /* \"ammPair.sol\":3364:3366  r0 */\n      dup6\n        /* \"ammPair.sol\":3368:3370  r1 */\n      dup6\n        /* \"ammPair.sol\":3355:3382  inIs0 ? (r0, r1) : (r1, r0) */\n    tag_109:\n        /* \"ammPair.sol\":3313:3382  (uint256 reserveIn, uint256 reserveOut) = inIs0 ? (r0, r1) : (r1, r0) */\n      0xffffffffffffffffffffffffffff\n      and\n      swap2\n      pop\n      0xffffffffffffffffffffffffffff\n      and\n      swap2\n      pop\n        /* \"ammPair.sol\":3393:3416  uint256 amountInWithFee */\n      0x00\n        /* \"ammPair.sol\":3430:3433  997 */\n      0x03e5\n        /* \"ammPair.sol\":3419:3427  amountIn */\n      dup10\n        /* \"ammPair.sol\":3419:3433  amountIn * 997 */\n      tag_110\n      swap2\n      swap1\n      tag_111\n      jump\t// in\n    tag_110:\n        /* \"ammPair.sol\":3393:3433  uint256 amountInWithFee = amountIn * 997 */\n      swap1\n      pop\n        /* \"ammPair.sol\":3455:3472  uint256 numerator */\n      0x00\n        /* \"ammPair.sol\":3493:3503  reserveOut */\n      dup3\n        /* \"ammPair.sol\":3475:3490  amountInWithFee */\n      dup3\n        /* \"ammPair.sol\":3475:3503  amountInWithFee * reserveOut */\n      tag_112\n      swap2\n      swap1\n      tag_111\n      jump\t// in\n    tag_112:\n        /* \"ammPair.sol\":3455:3503  uint256 numerator = amountInWithFee * reserveOut */\n      swap1\n      pop\n        /* \"ammPair.sol\":3513:3532  uint256 denominator */\n      0x00\n        /* \"ammPair.sol\":3554:3569  amountInWithFee */\n      dup3\n        /* \"ammPair.sol\":3547:3551  1000 */\n      0x03e8\n        /* \"ammPair.sol\":3535:3544  reserveIn */\n      dup7\n        /* \"ammPair.sol\":3535:3551  reserveIn * 1000 */\n      tag_113\n      swap2\n      swap1\n      tag_111\n      jump\t// in\n    tag_113:\n        /* \"ammPair.sol\":3535:3569  reserveIn * 1000 + amountInWithFee */\n      tag_114\n      swap2\n      swap1\n      tag_96\n      jump\t// in\n    tag_114:\n        /* \"ammPair.sol\":3513:3569  uint256 denominator = reserveIn * 1000 + amountInWithFee */\n      swap1\n      pop\n        /* \"ammPair.sol\":3603:3614  denominator */\n      dup1\n        /* \"ammPair.sol\":3591:3600  numerator */\n      dup3\n        /* \"ammPair.sol\":3591:3614  numerator / denominator */\n      tag_115\n      swap2\n      swap1\n      tag_116\n      jump\t// in\n    tag_115:\n        /* \"ammPair.sol\":3579:3614  amountOut = numerator / denominator */\n      swap10\n      pop\n        /* \"ammPair.sol\":2998:3621  {... */\n      pop\n      pop\n      pop\n      pop\n      pop\n      pop\n      pop\n      pop\n      pop\n        /* \"ammPair.sol\":2901:3621  function getAmountOut(address tokenIn, uint256 amountIn) public view returns (uint256 amountOut) {... */\n      swap3\n      swap2\n      pop\n      pop\n      jump\t// out\n        /* \"ammPair.sol\":909:940  address public immutable token1 */\n    tag_33:\n      immutable(\"0xd9670a00d025e59e1bd58d53874bea4ab34fea782716e2c168e89a3c8452d3bb\")\n      dup2\n      jump\t// out\n        /* \"ammPair.sol\":1734:2040  function _update(uint256 bal0, uint256 bal1) private {... */\n    tag_78:\n        /* \"ammPair.sol\":1813:1830  type(uint112).max */\n      0xffffffffffffffffffffffffffff\n        /* \"ammPair.sol\":1805:1830  bal0 <= type(uint112).max */\n      dup1\n      and\n        /* \"ammPair.sol\":1805:1809  bal0 */\n      dup3\n        /* \"ammPair.sol\":1805:1830  bal0 <= type(uint112).max */\n      gt\n      iszero\n        /* \"ammPair.sol\":1805:1859  bal0 <= type(uint112).max && bal1 <= type(uint112).max */\n      dup1\n      iszero\n      tag_118\n      jumpi\n      pop\n        /* \"ammPair.sol\":1842:1859  type(uint112).max */\n      0xffffffffffffffffffffffffffff\n        /* \"ammPair.sol\":1834:1859  bal1 <= type(uint112).max */\n      dup1\n      and\n        /* \"ammPair.sol\":1834:1838  bal1 */\n      dup2\n        /* \"ammPair.sol\":1834:1859  bal1 <= type(uint112).max */\n      gt\n      iszero\n        /* \"ammPair.sol\":1805:1859  bal0 <= type(uint112).max && bal1 <= type(uint112).max */\n    tag_118:\n        /* \"ammPair.sol\":1797:1872  require(bal0 <= type(uint112).max && bal1 <= type(uint112).max, \"overflow\") */\n      tag_119\n      jumpi\n      mload(0x40)\n      0x08c379a000000000000000000000000000000000000000000000000000000000\n      dup2\n      mstore\n      0x04\n      add\n      tag_120\n      swap1\n      tag_121\n      jump\t// in\n    tag_120:\n      mload(0x40)\n      dup1\n      swap2\n      sub\n      swap1\n      revert\n    tag_119:\n        /* \"ammPair.sol\":1901:1905  bal0 */\n      dup2\n        /* \"ammPair.sol\":1882:1890  reserve0 */\n      0x00\n      0x00\n        /* \"ammPair.sol\":1882:1906  reserve0 = uint112(bal0) */\n      0x0100\n      exp\n      dup2\n      sload\n      dup2\n      0xffffffffffffffffffffffffffff\n      mul\n      not\n      and\n      swap1\n      dup4\n      0xffffffffffffffffffffffffffff\n      and\n      mul\n      or\n      swap1\n      sstore\n      pop\n        /* \"ammPair.sol\":1935:1939  bal1 */\n      dup1\n        /* \"ammPair.sol\":1916:1924  reserve1 */\n      0x00\n      0x0e\n        /* \"ammPair.sol\":1916:1940  reserve1 = uint112(bal1) */\n      0x0100\n      exp\n      dup2\n      sload\n      dup2\n      0xffffffffffffffffffffffffffff\n      mul\n      not\n      and\n      swap1\n      dup4\n      0xffffffffffffffffffffffffffff\n      and\n      mul\n      or\n      swap1\n      sstore\n      pop\n        /* \"ammPair.sol\":1978:1993  block.timestamp */\n      timestamp\n        /* \"ammPair.sol\":1950:1968  blockTimestampLast */\n      0x00\n      0x1c\n        /* \"ammPair.sol\":1950:1994  blockTimestampLast = uint32(block.timestamp) */\n      0x0100\n      exp\n      dup2\n      sload\n      dup2\n      0xffffffff\n      mul\n      not\n      and\n      swap1\n      dup4\n      0xffffffff\n      and\n      mul\n      or\n      swap1\n      sstore\n      pop\n        /* \"ammPair.sol\":2009:2033  Sync(reserve0, reserve1) */\n      0x1c411e9a96e071241c2f21f7726b17ae89e3cab4c78be50e062b03a9fffbbad1\n        /* \"ammPair.sol\":2014:2022  reserve0 */\n      0x00\n      0x00\n      swap1\n      sload\n      swap1\n      0x0100\n      exp\n      swap1\n      div\n      0xffffffffffffffffffffffffffff\n      and\n        /* \"ammPair.sol\":2024:2032  reserve1 */\n      0x00\n      0x0e\n      swap1\n      sload\n      swap1\n      0x0100\n      exp\n      swap1\n      div\n      0xffffffffffffffffffffffffffff\n      and\n        /* \"ammPair.sol\":2009:2033  Sync(reserve0, reserve1) */\n      mload(0x40)\n      tag_122\n      swap3\n      swap2\n      swap1\n      tag_123\n      jump\t// in\n    tag_122:\n      mload(0x40)\n      dup1\n      swap2\n      sub\n      swap1\n      log1\n        /* \"ammPair.sol\":1734:2040  function _update(uint256 bal0, uint256 bal1) private {... */\n      pop\n      pop\n      jump\t// out\n        /* \"#utility.yul\":7:121   */\n    tag_124:\n        /* \"#utility.yul\":44:51   */\n      0x00\n        /* \"#utility.yul\":84:114   */\n      0xffffffffffffffffffffffffffff\n        /* \"#utility.yul\":77:82   */\n      dup3\n        /* \"#utility.yul\":73:115   */\n      and\n        /* \"#utility.yul\":62:115   */\n      swap1\n      pop\n        /* \"#utility.yul\":7:121   */\n      swap2\n      swap1\n      pop\n      jump\t// out\n        /* \"#utility.yul\":127:245   */\n    tag_125:\n        /* \"#utility.yul\":214:238   */\n      tag_154\n        /* \"#utility.yul\":232:237   */\n      dup2\n        /* \"#utility.yul\":214:238   */\n      tag_124\n      jump\t// in\n    tag_154:\n        /* \"#utility.yul\":209:212   */\n      dup3\n        /* \"#utility.yul\":202:239   */\n      mstore\n        /* \"#utility.yul\":127:245   */\n      pop\n      pop\n      jump\t// out\n        /* \"#utility.yul\":251:344   */\n    tag_126:\n        /* \"#utility.yul\":287:294   */\n      0x00\n        /* \"#utility.yul\":327:337   */\n      0xffffffff\n        /* \"#utility.yul\":320:325   */\n      dup3\n        /* \"#utility.yul\":316:338   */\n      and\n        /* \"#utility.yul\":305:338   */\n      swap1\n      pop\n        /* \"#utility.yul\":251:344   */\n      swap2\n      swap1\n      pop\n      jump\t// out\n        /* \"#utility.yul\":350:465   */\n    tag_127:\n        /* \"#utility.yul\":435:458   */\n      tag_157\n        /* \"#utility.yul\":452:457   */\n      dup2\n        /* \"#utility.yul\":435:458   */\n      tag_126\n      jump\t// in\n    tag_157:\n        /* \"#utility.yul\":430:433   */\n      dup3\n        /* \"#utility.yul\":423:459   */\n      mstore\n        /* \"#utility.yul\":350:465   */\n      pop\n      pop\n      jump\t// out\n        /* \"#utility.yul\":471:909   */\n    tag_12:\n        /* \"#utility.yul\":618:622   */\n      0x00\n        /* \"#utility.yul\":656:658   */\n      0x60\n        /* \"#utility.yul\":645:654   */\n      dup3\n        /* \"#utility.yul\":641:659   */\n      add\n        /* \"#utility.yul\":633:659   */\n      swap1\n      pop\n        /* \"#utility.yul\":669:740   */\n      tag_159\n        /* \"#utility.yul\":737:738   */\n      0x00\n        /* \"#utility.yul\":726:735   */\n      dup4\n        /* \"#utility.yul\":722:739   */\n      add\n        /* \"#utility.yul\":713:719   */\n      dup7\n        /* \"#utility.yul\":669:740   */\n      tag_125\n      jump\t// in\n    tag_159:\n        /* \"#utility.yul\":750:822   */\n      tag_160\n        /* \"#utility.yul\":818:820   */\n      0x20\n        /* \"#utility.yul\":807:816   */\n      dup4\n        /* \"#utility.yul\":803:821   */\n      add\n        /* \"#utility.yul\":794:800   */\n      dup6\n        /* \"#utility.yul\":750:822   */\n      tag_125\n      jump\t// in\n    tag_160:\n        /* \"#utility.yul\":832:902   */\n      tag_161\n        /* \"#utility.yul\":898:900   */\n      0x40\n        /* \"#utility.yul\":887:896   */\n      dup4\n        /* \"#utility.yul\":883:901   */\n      add\n        /* \"#utility.yul\":874:880   */\n      dup5\n        /* \"#utility.yul\":832:902   */\n      tag_127\n      jump\t// in\n    tag_161:\n        /* \"#utility.yul\":471:909   */\n      swap5\n      swap4\n      pop\n      pop\n      pop\n      pop\n      jump\t// out\n        /* \"#utility.yul\":915:1041   */\n    tag_128:\n        /* \"#utility.yul\":952:959   */\n      0x00\n        /* \"#utility.yul\":992:1034   */\n      0xffffffffffffffffffffffffffffffffffffffff\n        /* \"#utility.yul\":985:990   */\n      dup3\n        /* \"#utility.yul\":981:1035   */\n      and\n        /* \"#utility.yul\":970:1035   */\n      swap1\n      pop\n        /* \"#utility.yul\":915:1041   */\n      swap2\n      swap1\n      pop\n      jump\t// out\n        /* \"#utility.yul\":1047:1143   */\n    tag_129:\n        /* \"#utility.yul\":1084:1091   */\n      0x00\n        /* \"#utility.yul\":1113:1137   */\n      tag_164\n        /* \"#utility.yul\":1131:1136   */\n      dup3\n        /* \"#utility.yul\":1113:1137   */\n      tag_128\n      jump\t// in\n    tag_164:\n        /* \"#utility.yul\":1102:1137   */\n      swap1\n      pop\n        /* \"#utility.yul\":1047:1143   */\n      swap2\n      swap1\n      pop\n      jump\t// out\n        /* \"#utility.yul\":1149:1267   */\n    tag_130:\n        /* \"#utility.yul\":1236:1260   */\n      tag_166\n        /* \"#utility.yul\":1254:1259   */\n      dup2\n        /* \"#utility.yul\":1236:1260   */\n      tag_129\n      jump\t// in\n    tag_166:\n        /* \"#utility.yul\":1231:1234   */\n      dup3\n        /* \"#utility.yul\":1224:1261   */\n      mstore\n        /* \"#utility.yul\":1149:1267   */\n      pop\n      pop\n      jump\t// out\n        /* \"#utility.yul\":1273:1495   */\n    tag_16:\n        /* \"#utility.yul\":1366:1370   */\n      0x00\n        /* \"#utility.yul\":1404:1406   */\n      0x20\n        /* \"#utility.yul\":1393:1402   */\n      dup3\n        /* \"#utility.yul\":1389:1407   */\n      add\n        /* \"#utility.yul\":1381:1407   */\n      swap1\n      pop\n        /* \"#utility.yul\":1417:1488   */\n      tag_168\n        /* \"#utility.yul\":1485:1486   */\n      0x00\n        /* \"#utility.yul\":1474:1483   */\n      dup4\n        /* \"#utility.yul\":1470:1487   */\n      add\n        /* \"#utility.yul\":1461:1467   */\n      dup5\n        /* \"#utility.yul\":1417:1488   */\n      tag_130\n      jump\t// in\n    tag_168:\n        /* \"#utility.yul\":1273:1495   */\n      swap3\n      swap2\n      pop\n      pop\n      jump\t// out\n        /* \"#utility.yul\":1582:1699   */\n    tag_132:\n        /* \"#utility.yul\":1691:1692   */\n      0x00\n        /* \"#utility.yul\":1688:1689   */\n      0x00\n        /* \"#utility.yul\":1681:1693   */\n      revert\n        /* \"#utility.yul\":1828:1950   */\n    tag_134:\n        /* \"#utility.yul\":1901:1925   */\n      tag_173\n        /* \"#utility.yul\":1919:1924   */\n      dup2\n        /* \"#utility.yul\":1901:1925   */\n      tag_129\n      jump\t// in\n    tag_173:\n        /* \"#utility.yul\":1894:1899   */\n      dup2\n        /* \"#utility.yul\":1891:1926   */\n      eq\n        /* \"#utility.yul\":1881:1944   */\n      tag_174\n      jumpi\n        /* \"#utility.yul\":1940:1941   */\n      0x00\n        /* \"#utility.yul\":1937:1938   */\n      0x00\n        /* \"#utility.yul\":1930:1942   */\n      revert\n        /* \"#utility.yul\":1881:1944   */\n    tag_174:\n        /* \"#utility.yul\":1828:1950   */\n      pop\n      jump\t// out\n        /* \"#utility.yul\":1956:2095   */\n    tag_135:\n        /* \"#utility.yul\":2002:2007   */\n      0x00\n        /* \"#utility.yul\":2040:2046   */\n      dup2\n        /* \"#utility.yul\":2027:2047   */\n      calldataload\n        /* \"#utility.yul\":2018:2047   */\n      swap1\n      pop\n        /* \"#utility.yul\":2056:2089   */\n      tag_176\n        /* \"#utility.yul\":2083:2088   */\n      dup2\n        /* \"#utility.yul\":2056:2089   */\n      tag_134\n      jump\t// in\n    tag_176:\n        /* \"#utility.yul\":1956:2095   */\n      swap3\n      swap2\n      pop\n      pop\n      jump\t// out\n        /* \"#utility.yul\":2101:2178   */\n    tag_136:\n        /* \"#utility.yul\":2138:2145   */\n      0x00\n        /* \"#utility.yul\":2167:2172   */\n      dup2\n        /* \"#utility.yul\":2156:2172   */\n      swap1\n      pop\n        /* \"#utility.yul\":2101:2178   */\n      swap2\n      swap1\n      pop\n      jump\t// out\n        /* \"#utility.yul\":2184:2306   */\n    tag_137:\n        /* \"#utility.yul\":2257:2281   */\n      tag_179\n        /* \"#utility.yul\":2275:2280   */\n      dup2\n        /* \"#utility.yul\":2257:2281   */\n      tag_136\n      jump\t// in\n    tag_179:\n        /* \"#utility.yul\":2250:2255   */\n      dup2\n        /* \"#utility.yul\":2247:2282   */\n      eq\n        /* \"#utility.yul\":2237:2300   */\n      tag_180\n      jumpi\n        /* \"#utility.yul\":2296:2297   */\n      0x00\n        /* \"#utility.yul\":2293:2294   */\n      0x00\n        /* \"#utility.yul\":2286:2298   */\n      revert\n        /* \"#utility.yul\":2237:2300   */\n    tag_180:\n        /* \"#utility.yul\":2184:2306   */\n      pop\n      jump\t// out\n        /* \"#utility.yul\":2312:2451   */\n    tag_138:\n        /* \"#utility.yul\":2358:2363   */\n      0x00\n        /* \"#utility.yul\":2396:2402   */\n      dup2\n        /* \"#utility.yul\":2383:2403   */\n      calldataload\n        /* \"#utility.yul\":2374:2403   */\n      swap1\n      pop\n        /* \"#utility.yul\":2412:2445   */\n      tag_182\n        /* \"#utility.yul\":2439:2444   */\n      dup2\n        /* \"#utility.yul\":2412:2445   */\n      tag_137\n      jump\t// in\n    tag_182:\n        /* \"#utility.yul\":2312:2451   */\n      swap3\n      swap2\n      pop\n      pop\n      jump\t// out\n        /* \"#utility.yul\":2457:3222   */\n    tag_19:\n        /* \"#utility.yul\":2543:2549   */\n      0x00\n        /* \"#utility.yul\":2551:2557   */\n      0x00\n        /* \"#utility.yul\":2559:2565   */\n      0x00\n        /* \"#utility.yul\":2567:2573   */\n      0x00\n        /* \"#utility.yul\":2616:2619   */\n      0x80\n        /* \"#utility.yul\":2604:2613   */\n      dup6\n        /* \"#utility.yul\":2595:2602   */\n      dup8\n        /* \"#utility.yul\":2591:2614   */\n      sub\n        /* \"#utility.yul\":2587:2620   */\n      slt\n        /* \"#utility.yul\":2584:2704   */\n      iszero\n      tag_184\n      jumpi\n        /* \"#utility.yul\":2623:2702   */\n      tag_185\n      tag_132\n      jump\t// in\n    tag_185:\n        /* \"#utility.yul\":2584:2704   */\n    tag_184:\n        /* \"#utility.yul\":2743:2744   */\n      0x00\n        /* \"#utility.yul\":2768:2821   */\n      tag_186\n        /* \"#utility.yul\":2813:2820   */\n      dup8\n        /* \"#utility.yul\":2804:2810   */\n      dup3\n        /* \"#utility.yul\":2793:2802   */\n      dup9\n        /* \"#utility.yul\":2789:2811   */\n      add\n        /* \"#utility.yul\":2768:2821   */\n      tag_135\n      jump\t// in\n    tag_186:\n        /* \"#utility.yul\":2758:2821   */\n      swap5\n      pop\n        /* \"#utility.yul\":2714:2831   */\n      pop\n        /* \"#utility.yul\":2870:2872   */\n      0x20\n        /* \"#utility.yul\":2896:2949   */\n      tag_187\n        /* \"#utility.yul\":2941:2948   */\n      dup8\n        /* \"#utility.yul\":2932:2938   */\n      dup3\n        /* \"#utility.yul\":2921:2930   */\n      dup9\n        /* \"#utility.yul\":2917:2939   */\n      add\n        /* \"#utility.yul\":2896:2949   */\n      tag_138\n      jump\t// in\n    tag_187:\n        /* \"#utility.yul\":2886:2949   */\n      swap4\n      pop\n        /* \"#utility.yul\":2841:2959   */\n      pop\n        /* \"#utility.yul\":2998:3000   */\n      0x40\n        /* \"#utility.yul\":3024:3077   */\n      tag_188\n        /* \"#utility.yul\":3069:3076   */\n      dup8\n        /* \"#utility.yul\":3060:3066   */\n      dup3\n        /* \"#utility.yul\":3049:3058   */\n      dup9\n        /* \"#utility.yul\":3045:3067   */\n      add\n        /* \"#utility.yul\":3024:3077   */\n      tag_138\n      jump\t// in\n    tag_188:\n        /* \"#utility.yul\":3014:3077   */\n      swap3\n      pop\n        /* \"#utility.yul\":2969:3087   */\n      pop\n        /* \"#utility.yul\":3126:3128   */\n      0x60\n        /* \"#utility.yul\":3152:3205   */\n      tag_189\n        /* \"#utility.yul\":3197:3204   */\n      dup8\n        /* \"#utility.yul\":3188:3194   */\n      dup3\n        /* \"#utility.yul\":3177:3186   */\n      dup9\n        /* \"#utility.yul\":3173:3195   */\n      add\n        /* \"#utility.yul\":3152:3205   */\n      tag_135\n      jump\t// in\n    tag_189:\n        /* \"#utility.yul\":3142:3205   */\n      swap2\n      pop\n        /* \"#utility.yul\":3097:3215   */\n      pop\n        /* \"#utility.yul\":2457:3222   */\n      swap3\n      swap6\n      swap2\n      swap5\n      pop\n      swap3\n      pop\n      jump\t// out\n        /* \"#utility.yul\":3228:3346   */\n    tag_139:\n        /* \"#utility.yul\":3315:3339   */\n      tag_191\n        /* \"#utility.yul\":3333:3338   */\n      dup2\n        /* \"#utility.yul\":3315:3339   */\n      tag_136\n      jump\t// in\n    tag_191:\n        /* \"#utility.yul\":3310:3313   */\n      dup3\n        /* \"#utility.yul\":3303:3340   */\n      mstore\n        /* \"#utility.yul\":3228:3346   */\n      pop\n      pop\n      jump\t// out\n        /* \"#utility.yul\":3352:3574   */\n    tag_22:\n        /* \"#utility.yul\":3445:3449   */\n      0x00\n        /* \"#utility.yul\":3483:3485   */\n      0x20\n        /* \"#utility.yul\":3472:3481   */\n      dup3\n        /* \"#utility.yul\":3468:3486   */\n      add\n        /* \"#utility.yul\":3460:3486   */\n      swap1\n      pop\n        /* \"#utility.yul\":3496:3567   */\n      tag_193\n        /* \"#utility.yul\":3564:3565   */\n      0x00\n        /* \"#utility.yul\":3553:3562   */\n      dup4\n        /* \"#utility.yul\":3549:3566   */\n      add\n        /* \"#utility.yul\":3540:3546   */\n      dup5\n        /* \"#utility.yul\":3496:3567   */\n      tag_139\n      jump\t// in\n    tag_193:\n        /* \"#utility.yul\":3352:3574   */\n      swap3\n      swap2\n      pop\n      pop\n      jump\t// out\n        /* \"#utility.yul\":3580:4054   */\n    tag_25:\n        /* \"#utility.yul\":3648:3654   */\n      0x00\n        /* \"#utility.yul\":3656:3662   */\n      0x00\n        /* \"#utility.yul\":3705:3707   */\n      0x40\n        /* \"#utility.yul\":3693:3702   */\n      dup4\n        /* \"#utility.yul\":3684:3691   */\n      dup6\n        /* \"#utility.yul\":3680:3703   */\n      sub\n        /* \"#utility.yul\":3676:3708   */\n      slt\n        /* \"#utility.yul\":3673:3792   */\n      iszero\n      tag_195\n      jumpi\n        /* \"#utility.yul\":3711:3790   */\n      tag_196\n      tag_132\n      jump\t// in\n    tag_196:\n        /* \"#utility.yul\":3673:3792   */\n    tag_195:\n        /* \"#utility.yul\":3831:3832   */\n      0x00\n        /* \"#utility.yul\":3856:3909   */\n      tag_197\n        /* \"#utility.yul\":3901:3908   */\n      dup6\n        /* \"#utility.yul\":3892:3898   */\n      dup3\n        /* \"#utility.yul\":3881:3890   */\n      dup7\n        /* \"#utility.yul\":3877:3899   */\n      add\n        /* \"#utility.yul\":3856:3909   */\n      tag_138\n      jump\t// in\n    tag_197:\n        /* \"#utility.yul\":3846:3909   */\n      swap3\n      pop\n        /* \"#utility.yul\":3802:3919   */\n      pop\n        /* \"#utility.yul\":3958:3960   */\n      0x20\n        /* \"#utility.yul\":3984:4037   */\n      tag_198\n        /* \"#utility.yul\":4029:4036   */\n      dup6\n        /* \"#utility.yul\":4020:4026   */\n      dup3\n        /* \"#utility.yul\":4009:4018   */\n      dup7\n        /* \"#utility.yul\":4005:4027   */\n      add\n        /* \"#utility.yul\":3984:4037   */\n      tag_138\n      jump\t// in\n    tag_198:\n        /* \"#utility.yul\":3974:4037   */\n      swap2\n      pop\n        /* \"#utility.yul\":3929:4047   */\n      pop\n        /* \"#utility.yul\":3580:4054   */\n      swap3\n      pop\n      swap3\n      swap1\n      pop\n      jump\t// out\n        /* \"#utility.yul\":4060:4534   */\n    tag_29:\n        /* \"#utility.yul\":4128:4134   */\n      0x00\n        /* \"#utility.yul\":4136:4142   */\n      0x00\n        /* \"#utility.yul\":4185:4187   */\n      0x40\n        /* \"#utility.yul\":4173:4182   */\n      dup4\n        /* \"#utility.yul\":4164:4171   */\n      dup6\n        /* \"#utility.yul\":4160:4183   */\n      sub\n        /* \"#utility.yul\":4156:4188   */\n      slt\n        /* \"#utility.yul\":4153:4272   */\n      iszero\n      tag_200\n      jumpi\n        /* \"#utility.yul\":4191:4270   */\n      tag_201\n      tag_132\n      jump\t// in\n    tag_201:\n        /* \"#utility.yul\":4153:4272   */\n    tag_200:\n        /* \"#utility.yul\":4311:4312   */\n      0x00\n        /* \"#utility.yul\":4336:4389   */\n      tag_202\n        /* \"#utility.yul\":4381:4388   */\n      dup6\n        /* \"#utility.yul\":4372:4378   */\n      dup3\n        /* \"#utility.yul\":4361:4370   */\n      dup7\n        /* \"#utility.yul\":4357:4379   */\n      add\n        /* \"#utility.yul\":4336:4389   */\n      tag_135\n      jump\t// in\n    tag_202:\n        /* \"#utility.yul\":4326:4389   */\n      swap3\n      pop\n        /* \"#utility.yul\":4282:4399   */\n      pop\n        /* \"#utility.yul\":4438:4440   */\n      0x20\n        /* \"#utility.yul\":4464:4517   */\n      tag_203\n        /* \"#utility.yul\":4509:4516   */\n      dup6\n        /* \"#utility.yul\":4500:4506   */\n      dup3\n        /* \"#utility.yul\":4489:4498   */\n      dup7\n        /* \"#utility.yul\":4485:4507   */\n      add\n        /* \"#utility.yul\":4464:4517   */\n      tag_138\n      jump\t// in\n    tag_203:\n        /* \"#utility.yul\":4454:4517   */\n      swap2\n      pop\n        /* \"#utility.yul\":4409:4527   */\n      pop\n        /* \"#utility.yul\":4060:4534   */\n      swap3\n      pop\n      swap3\n      swap1\n      pop\n      jump\t// out\n        /* \"#utility.yul\":4540:4709   */\n    tag_140:\n        /* \"#utility.yul\":4624:4635   */\n      0x00\n        /* \"#utility.yul\":4658:4664   */\n      dup3\n        /* \"#utility.yul\":4653:4656   */\n      dup3\n        /* \"#utility.yul\":4646:4665   */\n      mstore\n        /* \"#utility.yul\":4698:4702   */\n      0x20\n        /* \"#utility.yul\":4693:4696   */\n      dup3\n        /* \"#utility.yul\":4689:4703   */\n      add\n        /* \"#utility.yul\":4674:4703   */\n      swap1\n      pop\n        /* \"#utility.yul\":4540:4709   */\n      swap3\n      swap2\n      pop\n      pop\n      jump\t// out\n        /* \"#utility.yul\":4715:4873   */\n    tag_141:\n        /* \"#utility.yul\":4855:4865   */\n      0x736c697070616765000000000000000000000000000000000000000000000000\n        /* \"#utility.yul\":4851:4852   */\n      0x00\n        /* \"#utility.yul\":4843:4849   */\n      dup3\n        /* \"#utility.yul\":4839:4853   */\n      add\n        /* \"#utility.yul\":4832:4866   */\n      mstore\n        /* \"#utility.yul\":4715:4873   */\n      pop\n      jump\t// out\n        /* \"#utility.yul\":4879:5244   */\n    tag_142:\n        /* \"#utility.yul\":5021:5024   */\n      0x00\n        /* \"#utility.yul\":5042:5108   */\n      tag_207\n        /* \"#utility.yul\":5106:5107   */\n      0x08\n        /* \"#utility.yul\":5101:5104   */\n      dup4\n        /* \"#utility.yul\":5042:5108   */\n      tag_140\n      jump\t// in\n    tag_207:\n        /* \"#utility.yul\":5035:5108   */\n      swap2\n      pop\n        /* \"#utility.yul\":5117:5210   */\n      tag_208\n        /* \"#utility.yul\":5206:5209   */\n      dup3\n        /* \"#utility.yul\":5117:5210   */\n      tag_141\n      jump\t// in\n    tag_208:\n        /* \"#utility.yul\":5235:5237   */\n      0x20\n        /* \"#utility.yul\":5230:5233   */\n      dup3\n        /* \"#utility.yul\":5226:5238   */\n      add\n        /* \"#utility.yul\":5219:5238   */\n      swap1\n      pop\n        /* \"#utility.yul\":4879:5244   */\n      swap2\n      swap1\n      pop\n      jump\t// out\n        /* \"#utility.yul\":5250:5669   */\n    tag_40:\n        /* \"#utility.yul\":5416:5420   */\n      0x00\n        /* \"#utility.yul\":5454:5456   */\n      0x20\n        /* \"#utility.yul\":5443:5452   */\n      dup3\n        /* \"#utility.yul\":5439:5457   */\n      add\n        /* \"#utility.yul\":5431:5457   */\n      swap1\n      pop\n        /* \"#utility.yul\":5503:5512   */\n      dup2\n        /* \"#utility.yul\":5497:5501   */\n      dup2\n        /* \"#utility.yul\":5493:5513   */\n      sub\n        /* \"#utility.yul\":5489:5490   */\n      0x00\n        /* \"#utility.yul\":5478:5487   */\n      dup4\n        /* \"#utility.yul\":5474:5491   */\n      add\n        /* \"#utility.yul\":5467:5514   */\n      mstore\n        /* \"#utility.yul\":5531:5662   */\n      tag_210\n        /* \"#utility.yul\":5657:5661   */\n      dup2\n        /* \"#utility.yul\":5531:5662   */\n      tag_142\n      jump\t// in\n    tag_210:\n        /* \"#utility.yul\":5523:5662   */\n      swap1\n      pop\n        /* \"#utility.yul\":5250:5669   */\n      swap2\n      swap1\n      pop\n      jump\t// out\n        /* \"#utility.yul\":5675:6117   */\n    tag_43:\n        /* \"#utility.yul\":5824:5828   */\n      0x00\n        /* \"#utility.yul\":5862:5864   */\n      0x60\n        /* \"#utility.yul\":5851:5860   */\n      dup3\n        /* \"#utility.yul\":5847:5865   */\n      add\n        /* \"#utility.yul\":5839:5865   */\n      swap1\n      pop\n        /* \"#utility.yul\":5875:5946   */\n      tag_212\n        /* \"#utility.yul\":5943:5944   */\n      0x00\n        /* \"#utility.yul\":5932:5941   */\n      dup4\n        /* \"#utility.yul\":5928:5945   */\n      add\n        /* \"#utility.yul\":5919:5925   */\n      dup7\n        /* \"#utility.yul\":5875:5946   */\n      tag_130\n      jump\t// in\n    tag_212:\n        /* \"#utility.yul\":5956:6028   */\n      tag_213\n        /* \"#utility.yul\":6024:6026   */\n      0x20\n        /* \"#utility.yul\":6013:6022   */\n      dup4\n        /* \"#utility.yul\":6009:6027   */\n      add\n        /* \"#utility.yul\":6000:6006   */\n      dup6\n        /* \"#utility.yul\":5956:6028   */\n      tag_130\n      jump\t// in\n    tag_213:\n        /* \"#utility.yul\":6038:6110   */\n      tag_214\n        /* \"#utility.yul\":6106:6108   */\n      0x40\n        /* \"#utility.yul\":6095:6104   */\n      dup4\n        /* \"#utility.yul\":6091:6109   */\n      add\n        /* \"#utility.yul\":6082:6088   */\n      dup5\n        /* \"#utility.yul\":6038:6110   */\n      tag_139\n      jump\t// in\n    tag_214:\n        /* \"#utility.yul\":5675:6117   */\n      swap5\n      swap4\n      pop\n      pop\n      pop\n      pop\n      jump\t// out\n        /* \"#utility.yul\":6123:6213   */\n    tag_143:\n        /* \"#utility.yul\":6157:6164   */\n      0x00\n        /* \"#utility.yul\":6200:6205   */\n      dup2\n        /* \"#utility.yul\":6193:6206   */\n      iszero\n        /* \"#utility.yul\":6186:6207   */\n      iszero\n        /* \"#utility.yul\":6175:6207   */\n      swap1\n      pop\n        /* \"#utility.yul\":6123:6213   */\n      swap2\n      swap1\n      pop\n      jump\t// out\n        /* \"#utility.yul\":6219:6335   */\n    tag_144:\n        /* \"#utility.yul\":6289:6310   */\n      tag_217\n        /* \"#utility.yul\":6304:6309   */\n      dup2\n        /* \"#utility.yul\":6289:6310   */\n      tag_143\n      jump\t// in\n    tag_217:\n        /* \"#utility.yul\":6282:6287   */\n      dup2\n        /* \"#utility.yul\":6279:6311   */\n      eq\n        /* \"#utility.yul\":6269:6329   */\n      tag_218\n      jumpi\n        /* \"#utility.yul\":6325:6326   */\n      0x00\n        /* \"#utility.yul\":6322:6323   */\n      0x00\n        /* \"#utility.yul\":6315:6327   */\n      revert\n        /* \"#utility.yul\":6269:6329   */\n    tag_218:\n        /* \"#utility.yul\":6219:6335   */\n      pop\n      jump\t// out\n        /* \"#utility.yul\":6341:6478   */\n    tag_145:\n        /* \"#utility.yul\":6395:6400   */\n      0x00\n        /* \"#utility.yul\":6426:6432   */\n      dup2\n        /* \"#utility.yul\":6420:6433   */\n      mload\n        /* \"#utility.yul\":6411:6433   */\n      swap1\n      pop\n        /* \"#utility.yul\":6442:6472   */\n      tag_220\n        /* \"#utility.yul\":6466:6471   */\n      dup2\n        /* \"#utility.yul\":6442:6472   */\n      tag_144\n      jump\t// in\n    tag_220:\n        /* \"#utility.yul\":6341:6478   */\n      swap3\n      swap2\n      pop\n      pop\n      jump\t// out\n        /* \"#utility.yul\":6484:6829   */\n    tag_47:\n        /* \"#utility.yul\":6551:6557   */\n      0x00\n        /* \"#utility.yul\":6600:6602   */\n      0x20\n        /* \"#utility.yul\":6588:6597   */\n      dup3\n        /* \"#utility.yul\":6579:6586   */\n      dup5\n        /* \"#utility.yul\":6575:6598   */\n      sub\n        /* \"#utility.yul\":6571:6603   */\n      slt\n        /* \"#utility.yul\":6568:6687   */\n      iszero\n      tag_222\n      jumpi\n        /* \"#utility.yul\":6606:6685   */\n      tag_223\n      tag_132\n      jump\t// in\n    tag_223:\n        /* \"#utility.yul\":6568:6687   */\n    tag_222:\n        /* \"#utility.yul\":6726:6727   */\n      0x00\n        /* \"#utility.yul\":6751:6812   */\n      tag_224\n        /* \"#utility.yul\":6804:6811   */\n      dup5\n        /* \"#utility.yul\":6795:6801   */\n      dup3\n        /* \"#utility.yul\":6784:6793   */\n      dup6\n        /* \"#utility.yul\":6780:6802   */\n      add\n        /* \"#utility.yul\":6751:6812   */\n      tag_145\n      jump\t// in\n    tag_224:\n        /* \"#utility.yul\":6741:6812   */\n      swap2\n      pop\n        /* \"#utility.yul\":6697:6822   */\n      pop\n        /* \"#utility.yul\":6484:6829   */\n      swap3\n      swap2\n      pop\n      pop\n      jump\t// out\n        /* \"#utility.yul\":6835:7167   */\n    tag_50:\n        /* \"#utility.yul\":6956:6960   */\n      0x00\n        /* \"#utility.yul\":6994:6996   */\n      0x40\n        /* \"#utility.yul\":6983:6992   */\n      dup3\n        /* \"#utility.yul\":6979:6997   */\n      add\n        /* \"#utility.yul\":6971:6997   */\n      swap1\n      pop\n        /* \"#utility.yul\":7007:7078   */\n      tag_226\n        /* \"#utility.yul\":7075:7076   */\n      0x00\n        /* \"#utility.yul\":7064:7073   */\n      dup4\n        /* \"#utility.yul\":7060:7077   */\n      add\n        /* \"#utility.yul\":7051:7057   */\n      dup6\n        /* \"#utility.yul\":7007:7078   */\n      tag_130\n      jump\t// in\n    tag_226:\n        /* \"#utility.yul\":7088:7160   */\n      tag_227\n        /* \"#utility.yul\":7156:7158   */\n      0x20\n        /* \"#utility.yul\":7145:7154   */\n      dup4\n        /* \"#utility.yul\":7141:7159   */\n      add\n        /* \"#utility.yul\":7132:7138   */\n      dup5\n        /* \"#utility.yul\":7088:7160   */\n      tag_139\n      jump\t// in\n    tag_227:\n        /* \"#utility.yul\":6835:7167   */\n      swap4\n      swap3\n      pop\n      pop\n      pop\n      jump\t// out\n        /* \"#utility.yul\":7173:7316   */\n    tag_146:\n        /* \"#utility.yul\":7230:7235   */\n      0x00\n        /* \"#utility.yul\":7261:7267   */\n      dup2\n        /* \"#utility.yul\":7255:7268   */\n      mload\n        /* \"#utility.yul\":7246:7268   */\n      swap1\n      pop\n        /* \"#utility.yul\":7277:7310   */\n      tag_229\n        /* \"#utility.yul\":7304:7309   */\n      dup2\n        /* \"#utility.yul\":7277:7310   */\n      tag_137\n      jump\t// in\n    tag_229:\n        /* \"#utility.yul\":7173:7316   */\n      swap3\n      swap2\n      pop\n      pop\n      jump\t// out\n        /* \"#utility.yul\":7322:7673   */\n    tag_72:\n        /* \"#utility.yul\":7392:7398   */\n      0x00\n        /* \"#utility.yul\":7441:7443   */\n      0x20\n        /* \"#utility.yul\":7429:7438   */\n      dup3\n        /* \"#utility.yul\":7420:7427   */\n      dup5\n        /* \"#utility.yul\":7416:7439   */\n      sub\n        /* \"#utility.yul\":7412:7444   */\n      slt\n        /* \"#utility.yul\":7409:7528   */\n      iszero\n      tag_231\n      jumpi\n        /* \"#utility.yul\":7447:7526   */\n      tag_232\n      tag_132\n      jump\t// in\n    tag_232:\n        /* \"#utility.yul\":7409:7528   */\n    tag_231:\n        /* \"#utility.yul\":7567:7568   */\n      0x00\n        /* \"#utility.yul\":7592:7656   */\n      tag_233\n        /* \"#utility.yul\":7648:7655   */\n      dup5\n        /* \"#utility.yul\":7639:7645   */\n      dup3\n        /* \"#utility.yul\":7628:7637   */\n      dup6\n        /* \"#utility.yul\":7624:7646   */\n      add\n        /* \"#utility.yul\":7592:7656   */\n      tag_146\n      jump\t// in\n    tag_233:\n        /* \"#utility.yul\":7582:7656   */\n      swap2\n      pop\n        /* \"#utility.yul\":7538:7666   */\n      pop\n        /* \"#utility.yul\":7322:7673   */\n      swap3\n      swap2\n      pop\n      pop\n      jump\t// out\n        /* \"#utility.yul\":7679:8232   */\n    tag_82:\n        /* \"#utility.yul\":7856:7860   */\n      0x00\n        /* \"#utility.yul\":7894:7897   */\n      0x80\n        /* \"#utility.yul\":7883:7892   */\n      dup3\n        /* \"#utility.yul\":7879:7898   */\n      add\n        /* \"#utility.yul\":7871:7898   */\n      swap1\n      pop\n        /* \"#utility.yul\":7908:7979   */\n      tag_235\n        /* \"#utility.yul\":7976:7977   */\n      0x00\n        /* \"#utility.yul\":7965:7974   */\n      dup4\n        /* \"#utility.yul\":7961:7978   */\n      add\n        /* \"#utility.yul\":7952:7958   */\n      dup8\n        /* \"#utility.yul\":7908:7979   */\n      tag_130\n      jump\t// in\n    tag_235:\n        /* \"#utility.yul\":7989:8061   */\n      tag_236\n        /* \"#utility.yul\":8057:8059   */\n      0x20\n        /* \"#utility.yul\":8046:8055   */\n      dup4\n        /* \"#utility.yul\":8042:8060   */\n      add\n        /* \"#utility.yul\":8033:8039   */\n      dup7\n        /* \"#utility.yul\":7989:8061   */\n      tag_139\n      jump\t// in\n    tag_236:\n        /* \"#utility.yul\":8071:8143   */\n      tag_237\n        /* \"#utility.yul\":8139:8141   */\n      0x40\n        /* \"#utility.yul\":8128:8137   */\n      dup4\n        /* \"#utility.yul\":8124:8142   */\n      add\n        /* \"#utility.yul\":8115:8121   */\n      dup6\n        /* \"#utility.yul\":8071:8143   */\n      tag_130\n      jump\t// in\n    tag_237:\n        /* \"#utility.yul\":8153:8225   */\n      tag_238\n        /* \"#utility.yul\":8221:8223   */\n      0x60\n        /* \"#utility.yul\":8210:8219   */\n      dup4\n        /* \"#utility.yul\":8206:8224   */\n      add\n        /* \"#utility.yul\":8197:8203   */\n      dup5\n        /* \"#utility.yul\":8153:8225   */\n      tag_139\n      jump\t// in\n    tag_238:\n        /* \"#utility.yul\":7679:8232   */\n      swap6\n      swap5\n      pop\n      pop\n      pop\n      pop\n      pop\n      jump\t// out\n        /* \"#utility.yul\":8238:8418   */\n    tag_147:\n        /* \"#utility.yul\":8286:8363   */\n      0x4e487b7100000000000000000000000000000000000000000000000000000000\n        /* \"#utility.yul\":8283:8284   */\n      0x00\n        /* \"#utility.yul\":8276:8364   */\n      mstore\n        /* \"#utility.yul\":8383:8387   */\n      0x11\n        /* \"#utility.yul\":8380:8381   */\n      0x04\n        /* \"#utility.yul\":8373:8388   */\n      mstore\n        /* \"#utility.yul\":8407:8411   */\n      0x24\n        /* \"#utility.yul\":8404:8405   */\n      0x00\n        /* \"#utility.yul\":8397:8412   */\n      revert\n        /* \"#utility.yul\":8424:8615   */\n    tag_96:\n        /* \"#utility.yul\":8464:8467   */\n      0x00\n        /* \"#utility.yul\":8483:8503   */\n      tag_241\n        /* \"#utility.yul\":8501:8502   */\n      dup3\n        /* \"#utility.yul\":8483:8503   */\n      tag_136\n      jump\t// in\n    tag_241:\n        /* \"#utility.yul\":8478:8503   */\n      swap2\n      pop\n        /* \"#utility.yul\":8517:8537   */\n      tag_242\n        /* \"#utility.yul\":8535:8536   */\n      dup4\n        /* \"#utility.yul\":8517:8537   */\n      tag_136\n      jump\t// in\n    tag_242:\n        /* \"#utility.yul\":8512:8537   */\n      swap3\n      pop\n        /* \"#utility.yul\":8560:8561   */\n      dup3\n        /* \"#utility.yul\":8557:8558   */\n      dup3\n        /* \"#utility.yul\":8553:8562   */\n      add\n        /* \"#utility.yul\":8546:8562   */\n      swap1\n      pop\n        /* \"#utility.yul\":8581:8584   */\n      dup1\n        /* \"#utility.yul\":8578:8579   */\n      dup3\n        /* \"#utility.yul\":8575:8585   */\n      gt\n        /* \"#utility.yul\":8572:8608   */\n      iszero\n      tag_243\n      jumpi\n        /* \"#utility.yul\":8588:8606   */\n      tag_244\n      tag_147\n      jump\t// in\n    tag_244:\n        /* \"#utility.yul\":8572:8608   */\n    tag_243:\n        /* \"#utility.yul\":8424:8615   */\n      swap3\n      swap2\n      pop\n      pop\n      jump\t// out\n        /* \"#utility.yul\":8621:8953   */\n    tag_100:\n        /* \"#utility.yul\":8742:8746   */\n      0x00\n        /* \"#utility.yul\":8780:8782   */\n      0x40\n        /* \"#utility.yul\":8769:8778   */\n      dup3\n        /* \"#utility.yul\":8765:8783   */\n      add\n        /* \"#utility.yul\":8757:8783   */\n      swap1\n      pop\n        /* \"#utility.yul\":8793:8864   */\n      tag_246\n        /* \"#utility.yul\":8861:8862   */\n      0x00\n        /* \"#utility.yul\":8850:8859   */\n      dup4\n        /* \"#utility.yul\":8846:8863   */\n      add\n        /* \"#utility.yul\":8837:8843   */\n      dup6\n        /* \"#utility.yul\":8793:8864   */\n      tag_139\n      jump\t// in\n    tag_246:\n        /* \"#utility.yul\":8874:8946   */\n      tag_247\n        /* \"#utility.yul\":8942:8944   */\n      0x20\n        /* \"#utility.yul\":8931:8940   */\n      dup4\n        /* \"#utility.yul\":8927:8945   */\n      add\n        /* \"#utility.yul\":8918:8924   */\n      dup5\n        /* \"#utility.yul\":8874:8946   */\n      tag_139\n      jump\t// in\n    tag_247:\n        /* \"#utility.yul\":8621:8953   */\n      swap4\n      swap3\n      pop\n      pop\n      pop\n      jump\t// out\n        /* \"#utility.yul\":8959:9369   */\n    tag_111:\n        /* \"#utility.yul\":8999:9006   */\n      0x00\n        /* \"#utility.yul\":9022:9042   */\n      tag_249\n        /* \"#utility.yul\":9040:9041   */\n      dup3\n        /* \"#utility.yul\":9022:9042   */\n      tag_136\n      jump\t// in\n    tag_249:\n        /* \"#utility.yul\":9017:9042   */\n      swap2\n      pop\n        /* \"#utility.yul\":9056:9076   */\n      tag_250\n        /* \"#utility.yul\":9074:9075   */\n      dup4\n        /* \"#utility.yul\":9056:9076   */\n      tag_136\n      jump\t// in\n    tag_250:\n        /* \"#utility.yul\":9051:9076   */\n      swap3\n      pop\n        /* \"#utility.yul\":9111:9112   */\n      dup3\n        /* \"#utility.yul\":9108:9109   */\n      dup3\n        /* \"#utility.yul\":9104:9113   */\n      mul\n        /* \"#utility.yul\":9133:9163   */\n      tag_251\n        /* \"#utility.yul\":9151:9162   */\n      dup2\n        /* \"#utility.yul\":9133:9163   */\n      tag_136\n      jump\t// in\n    tag_251:\n        /* \"#utility.yul\":9122:9163   */\n      swap2\n      pop\n        /* \"#utility.yul\":9312:9313   */\n      dup3\n        /* \"#utility.yul\":9303:9310   */\n      dup3\n        /* \"#utility.yul\":9299:9314   */\n      div\n        /* \"#utility.yul\":9296:9297   */\n      dup5\n        /* \"#utility.yul\":9293:9315   */\n      eq\n        /* \"#utility.yul\":9273:9274   */\n      dup4\n        /* \"#utility.yul\":9266:9275   */\n      iszero\n        /* \"#utility.yul\":9246:9329   */\n      or\n        /* \"#utility.yul\":9223:9362   */\n      tag_252\n      jumpi\n        /* \"#utility.yul\":9342:9360   */\n      tag_253\n      tag_147\n      jump\t// in\n    tag_253:\n        /* \"#utility.yul\":9223:9362   */\n    tag_252:\n        /* \"#utility.yul\":9007:9369   */\n      pop\n        /* \"#utility.yul\":8959:9369   */\n      swap3\n      swap2\n      pop\n      pop\n      jump\t// out\n        /* \"#utility.yul\":9375:9555   */\n    tag_148:\n        /* \"#utility.yul\":9423:9500   */\n      0x4e487b7100000000000000000000000000000000000000000000000000000000\n        /* \"#utility.yul\":9420:9421   */\n      0x00\n        /* \"#utility.yul\":9413:9501   */\n      mstore\n        /* \"#utility.yul\":9520:9524   */\n      0x12\n        /* \"#utility.yul\":9517:9518   */\n      0x04\n        /* \"#utility.yul\":9510:9525   */\n      mstore\n        /* \"#utility.yul\":9544:9548   */\n      0x24\n        /* \"#utility.yul\":9541:9542   */\n      0x00\n        /* \"#utility.yul\":9534:9549   */\n      revert\n        /* \"#utility.yul\":9561:9746   */\n    tag_116:\n        /* \"#utility.yul\":9601:9602   */\n      0x00\n        /* \"#utility.yul\":9618:9638   */\n      tag_256\n        /* \"#utility.yul\":9636:9637   */\n      dup3\n        /* \"#utility.yul\":9618:9638   */\n      tag_136\n      jump\t// in\n    tag_256:\n        /* \"#utility.yul\":9613:9638   */\n      swap2\n      pop\n        /* \"#utility.yul\":9652:9672   */\n      tag_257\n        /* \"#utility.yul\":9670:9671   */\n      dup4\n        /* \"#utility.yul\":9652:9672   */\n      tag_136\n      jump\t// in\n    tag_257:\n        /* \"#utility.yul\":9647:9672   */\n      swap3\n      pop\n        /* \"#utility.yul\":9691:9692   */\n      dup3\n        /* \"#utility.yul\":9681:9716   */\n      tag_258\n      jumpi\n        /* \"#utility.yul\":9696:9714   */\n      tag_259\n      tag_148\n      jump\t// in\n    tag_259:\n        /* \"#utility.yul\":9681:9716   */\n    tag_258:\n        /* \"#utility.yul\":9738:9739   */\n      dup3\n        /* \"#utility.yul\":9735:9736   */\n      dup3\n        /* \"#utility.yul\":9731:9740   */\n      div\n        /* \"#utility.yul\":9726:9740   */\n      swap1\n      pop\n        /* \"#utility.yul\":9561:9746   */\n      swap3\n      swap2\n      pop\n      pop\n      jump\t// out\n        /* \"#utility.yul\":9752:9910   */\n    tag_149:\n        /* \"#utility.yul\":9892:9902   */\n      0x6f766572666c6f77000000000000000000000000000000000000000000000000\n        /* \"#utility.yul\":9888:9889   */\n      0x00\n        /* \"#utility.yul\":9880:9886   */\n      dup3\n        /* \"#utility.yul\":9876:9890   */\n      add\n        /* \"#utility.yul\":9869:9903   */\n      mstore\n        /* \"#utility.yul\":9752:9910   */\n      pop\n      jump\t// out\n        /* \"#utility.yul\":9916:10281   */\n    tag_150:\n        /* \"#utility.yul\":10058:10061   */\n      0x00\n        /* \"#utility.yul\":10079:10145   */\n      tag_262\n        /* \"#utility.yul\":10143:10144   */\n      0x08\n        /* \"#utility.yul\":10138:10141   */\n      dup4\n        /* \"#utility.yul\":10079:10145   */\n      tag_140\n      jump\t// in\n    tag_262:\n        /* \"#utility.yul\":10072:10145   */\n      swap2\n      pop\n        /* \"#utility.yul\":10154:10247   */\n      tag_263\n        /* \"#utility.yul\":10243:10246   */\n      dup3\n        /* \"#utility.yul\":10154:10247   */\n      tag_149\n      jump\t// in\n    tag_263:\n        /* \"#utility.yul\":10272:10274   */\n      0x20\n        /* \"#utility.yul\":10267:10270   */\n      dup3\n        /* \"#utility.yul\":10263:10275   */\n      add\n        /* \"#utility.yul\":10256:10275   */\n      swap1\n      pop\n        /* \"#utility.yul\":9916:10281   */\n      swap2\n      swap1\n      pop\n      jump\t// out\n        /* \"#utility.yul\":10287:10706   */\n    tag_121:\n        /* \"#utility.yul\":10453:10457   */\n      0x00\n        /* \"#utility.yul\":10491:10493   */\n      0x20\n        /* \"#utility.yul\":10480:10489   */\n      dup3\n        /* \"#utility.yul\":10476:10494   */\n      add\n        /* \"#utility.yul\":10468:10494   */\n      swap1\n      pop\n        /* \"#utility.yul\":10540:10549   */\n      dup2\n        /* \"#utility.yul\":10534:10538   */\n      dup2\n        /* \"#utility.yul\":10530:10550   */\n      sub\n        /* \"#utility.yul\":10526:10527   */\n      0x00\n        /* \"#utility.yul\":10515:10524   */\n      dup4\n        /* \"#utility.yul\":10511:10528   */\n      add\n        /* \"#utility.yul\":10504:10551   */\n      mstore\n        /* \"#utility.yul\":10568:10699   */\n      tag_265\n        /* \"#utility.yul\":10694:10698   */\n      dup2\n        /* \"#utility.yul\":10568:10699   */\n      tag_150\n      jump\t// in\n    tag_265:\n        /* \"#utility.yul\":10560:10699   */\n      swap1\n      pop\n        /* \"#utility.yul\":10287:10706   */\n      swap2\n      swap1\n      pop\n      jump\t// out\n        /* \"#utility.yul\":10712:11044   */\n    tag_123:\n        /* \"#utility.yul\":10833:10837   */\n      0x00\n        /* \"#utility.yul\":10871:10873   */\n      0x40\n        /* \"#utility.yul\":10860:10869   */\n      dup3\n        /* \"#utility.yul\":10856:10874   */\n      add\n        /* \"#utility.yul\":10848:10874   */\n      swap1\n      pop\n        /* \"#utility.yul\":10884:10955   */\n      tag_267\n        /* \"#utility.yul\":10952:10953   */\n      0x00\n        /* \"#utility.yul\":10941:10950   */\n      dup4\n        /* \"#utility.yul\":10937:10954   */\n      add\n        /* \"#utility.yul\":10928:10934   */\n      dup6\n        /* \"#utility.yul\":10884:10955   */\n      tag_125\n      jump\t// in\n    tag_267:\n        /* \"#utility.yul\":10965:11037   */\n      tag_268\n        /* \"#utility.yul\":11033:11035   */\n      0x20\n        /* \"#utility.yul\":11022:11031   */\n      dup4\n        /* \"#utility.yul\":11018:11036   */\n      add\n        /* \"#utility.yul\":11009:11015   */\n      dup5\n        /* \"#utility.yul\":10965:11037   */\n      tag_125\n      jump\t// in\n    tag_268:\n        /* \"#utility.yul\":10712:11044   */\n      swap4\n      swap3\n      pop\n      pop\n      pop\n      jump\t// out\n\n    auxdata: 0xa264697066735822122007c6ae5a6f8c256b6285b01a5950925742da460e7c7eee23f29ddd5e53bf16ea64736f6c634300081e0033\n}\n",
				"bytecode": {
					"linkReferences": {},
					"object": "60c060405234801561000f575f5ffd5b5060405161173a38038061173a833981810160405281019061003191906101b1565b8073ffffffffffffffffffffffffffffffffffffffff168273ffffffffffffffffffffffffffffffffffffffff160361009f576040517f08c379a000000000000000000000000000000000000000000000000000000000815260040161009690610249565b60405180910390fd5b5f5f8273ffffffffffffffffffffffffffffffffffffffff168473ffffffffffffffffffffffffffffffffffffffff16106100db5782846100de565b83835b915091508173ffffffffffffffffffffffffffffffffffffffff1660808173ffffffffffffffffffffffffffffffffffffffff16815250508073ffffffffffffffffffffffffffffffffffffffff1660a08173ffffffffffffffffffffffffffffffffffffffff168152505050505050610267565b5f5ffd5b5f73ffffffffffffffffffffffffffffffffffffffff82169050919050565b5f61018082610157565b9050919050565b61019081610176565b811461019a575f5ffd5b50565b5f815190506101ab81610187565b92915050565b5f5f604083850312156101c7576101c6610153565b5b5f6101d48582860161019d565b92505060206101e58582860161019d565b9150509250929050565b5f82825260208201905092915050565b7f6964656e746963616c00000000000000000000000000000000000000000000005f82015250565b5f6102336009836101ef565b915061023e826101ff565b602082019050919050565b5f6020820190508181035f83015261026081610227565b9050919050565b60805160a0516114496102f15f395f818161032f0152818161040501528181610458015281816106d0015281816108270152818161093f01528181610bc10152610ce301525f8181610195015281816102090152818161025c0152818161052b01528181610635015281816107ae015281816108010152818161086c0152610b6f01526114495ff3fe608060405234801561000f575f5ffd5b5060043610610060575f3560e01c80630902f1ac146100645780630dfe1681146100845780636d8bb4a3146100a25780639cd441da146100d2578063ca706bcf146100ee578063d21220a71461011e575b5f5ffd5b61006c61013c565b60405161007b93929190610eb3565b60405180910390f35b61008c610193565b6040516100999190610f27565b60405180910390f35b6100bc60048036038101906100b79190610fa1565b6101b7565b6040516100c99190611014565b60405180910390f35b6100ec60048036038101906100e7919061102d565b61086a565b005b6101086004803603810190610103919061106b565b610abf565b6040516101159190611014565b60405180910390f35b610126610ce1565b6040516101339190610f27565b60405180910390f35b5f5f5f5f5f9054906101000a90046dffffffffffffffffffffffffffff165f600e9054906101000a90046dffffffffffffffffffffffffffff165f601c9054906101000a900463ffffffff16925092509250909192565b7f000000000000000000000000000000000000000000000000000000000000000081565b5f6101c28585610abf565b905082811015610207576040517f08c379a00000000000000000000000000000000000000000000000000000000081526004016101fe90611103565b60405180910390fd5b7f000000000000000000000000000000000000000000000000000000000000000073ffffffffffffffffffffffffffffffffffffffff168573ffffffffffffffffffffffffffffffffffffffff1603610403577f000000000000000000000000000000000000000000000000000000000000000073ffffffffffffffffffffffffffffffffffffffff166323b872dd3330876040518463ffffffff1660e01b81526004016102b793929190611121565b6020604051808303815f875af11580156102d3573d5f5f3e3d5ffd5b505050506040513d601f19601f820116820180604052508101906102f7919061118b565b61032d576040517f90b8ec1800000000000000000000000000000000000000000000000000000000815260040160405180910390fd5b7f000000000000000000000000000000000000000000000000000000000000000073ffffffffffffffffffffffffffffffffffffffff1663a9059cbb83836040518363ffffffff1660e01b81526004016103889291906111b6565b6020604051808303815f875af11580156103a4573d5f5f3e3d5ffd5b505050506040513d601f19601f820116820180604052508101906103c8919061118b565b6103fe576040517f90b8ec1800000000000000000000000000000000000000000000000000000000815260040160405180910390fd5b610632565b7f000000000000000000000000000000000000000000000000000000000000000073ffffffffffffffffffffffffffffffffffffffff168573ffffffffffffffffffffffffffffffffffffffff16036105ff577f000000000000000000000000000000000000000000000000000000000000000073ffffffffffffffffffffffffffffffffffffffff166323b872dd3330876040518463ffffffff1660e01b81526004016104b393929190611121565b6020604051808303815f875af11580156104cf573d5f5f3e3d5ffd5b505050506040513d601f19601f820116820180604052508101906104f3919061118b565b610529576040517f90b8ec1800000000000000000000000000000000000000000000000000000000815260040160405180910390fd5b7f000000000000000000000000000000000000000000000000000000000000000073ffffffffffffffffffffffffffffffffffffffff1663a9059cbb83836040518363ffffffff1660e01b81526004016105849291906111b6565b6020604051808303815f875af11580156105a0573d5f5f3e3d5ffd5b505050506040513d601f19601f820116820180604052508101906105c4919061118b565b6105fa576040517f90b8ec1800000000000000000000000000000000000000000000000000000000815260040160405180910390fd5b610631565b6040517fc1ab6dc100000000000000000000000000000000000000000000000000000000815260040160405180910390fd5b5b5f7f000000000000000000000000000000000000000000000000000000000000000073ffffffffffffffffffffffffffffffffffffffff166370a08231306040518263ffffffff1660e01b815260040161068c9190610f27565b602060405180830381865afa1580156106a7573d5f5f3e3d5ffd5b505050506040513d601f19601f820116820180604052508101906106cb91906111f1565b90505f7f000000000000000000000000000000000000000000000000000000000000000073ffffffffffffffffffffffffffffffffffffffff166370a08231306040518263ffffffff1660e01b81526004016107279190610f27565b602060405180830381865afa158015610742573d5f5f3e3d5ffd5b505050506040513d601f19601f8201168201806040525081019061076691906111f1565b90506107728282610d05565b3373ffffffffffffffffffffffffffffffffffffffff167f5380cf97d8f645d3c4896da60c053458dca03a3a31cec642ac80e1ddf0d8d02a88887f000000000000000000000000000000000000000000000000000000000000000073ffffffffffffffffffffffffffffffffffffffff168b73ffffffffffffffffffffffffffffffffffffffff1614610825577f0000000000000000000000000000000000000000000000000000000000000000610847565b7f00000000000000000000000000000000000000000000000000000000000000005b87604051610858949392919061121c565b60405180910390a25050949350505050565b7f000000000000000000000000000000000000000000000000000000000000000073ffffffffffffffffffffffffffffffffffffffff166323b872dd3330856040518463ffffffff1660e01b81526004016108c793929190611121565b6020604051808303815f875af11580156108e3573d5f5f3e3d5ffd5b505050506040513d601f19601f82011682018060405250810190610907919061118b565b61093d576040517f90b8ec1800000000000000000000000000000000000000000000000000000000815260040160405180910390fd5b7f000000000000000000000000000000000000000000000000000000000000000073ffffffffffffffffffffffffffffffffffffffff166323b872dd3330846040518463ffffffff1660e01b815260040161099a93929190611121565b6020604051808303815f875af11580156109b6573d5f5f3e3d5ffd5b505050506040513d601f19601f820116820180604052508101906109da919061118b565b610a10576040517f90b8ec1800000000000000000000000000000000000000000000000000000000815260040160405180910390fd5b5f5f610a1a61013c565b50915091505f84836dffffffffffffffffffffffffffff16610a3c919061128c565b90505f84836dffffffffffffffffffffffffffff16610a5b919061128c565b9050610a678282610d05565b3373ffffffffffffffffffffffffffffffffffffffff167f06239653922ac7bea6aa2b19dc486b9361821d37712eb796adfd38d81de278ca8787604051610aaf9291906112bf565b60405180910390a2505050505050565b5f5f8203610af9576040517ff8b3bb6100000000000000000000000000000000000000000000000000000000815260040160405180910390fd5b5f5f610b0361013c565b50915091505f826dffffffffffffffffffffffffffff161480610b3557505f816dffffffffffffffffffffffffffff16145b15610b6c576040517fbb55fd2700000000000000000000000000000000000000000000000000000000815260040160405180910390fd5b5f7f000000000000000000000000000000000000000000000000000000000000000073ffffffffffffffffffffffffffffffffffffffff168673ffffffffffffffffffffffffffffffffffffffff161490505f7f000000000000000000000000000000000000000000000000000000000000000073ffffffffffffffffffffffffffffffffffffffff168773ffffffffffffffffffffffffffffffffffffffff1614905081158015610c1c575080155b15610c53576040517fc1ab6dc100000000000000000000000000000000000000000000000000000000815260040160405180910390fd5b5f5f83610c61578486610c64565b85855b6dffffffffffffffffffffffffffff1691506dffffffffffffffffffffffffffff1691505f6103e589610c9791906112e6565b90505f8282610ca691906112e6565b90505f826103e886610cb891906112e6565b610cc2919061128c565b90508082610cd09190611354565b995050505050505050505092915050565b7f000000000000000000000000000000000000000000000000000000000000000081565b6dffffffffffffffffffffffffffff80168211158015610d3557506dffffffffffffffffffffffffffff80168111155b610d74576040517f08c379a0000000000000000000000000000000000000000000000000000000008152600401610d6b906113ce565b60405180910390fd5b815f5f6101000a8154816dffffffffffffffffffffffffffff02191690836dffffffffffffffffffffffffffff160217905550805f600e6101000a8154816dffffffffffffffffffffffffffff02191690836dffffffffffffffffffffffffffff160217905550425f601c6101000a81548163ffffffff021916908363ffffffff1602179055507f1c411e9a96e071241c2f21f7726b17ae89e3cab4c78be50e062b03a9fffbbad15f5f9054906101000a90046dffffffffffffffffffffffffffff165f600e9054906101000a90046dffffffffffffffffffffffffffff16604051610e619291906113ec565b60405180910390a15050565b5f6dffffffffffffffffffffffffffff82169050919050565b610e8f81610e6d565b82525050565b5f63ffffffff82169050919050565b610ead81610e95565b82525050565b5f606082019050610ec65f830186610e86565b610ed36020830185610e86565b610ee06040830184610ea4565b949350505050565b5f73ffffffffffffffffffffffffffffffffffffffff82169050919050565b5f610f1182610ee8565b9050919050565b610f2181610f07565b82525050565b5f602082019050610f3a5f830184610f18565b92915050565b5f5ffd5b610f4d81610f07565b8114610f57575f5ffd5b50565b5f81359050610f6881610f44565b92915050565b5f819050919050565b610f8081610f6e565b8114610f8a575f5ffd5b50565b5f81359050610f9b81610f77565b92915050565b5f5f5f5f60808587031215610fb957610fb8610f40565b5b5f610fc687828801610f5a565b9450506020610fd787828801610f8d565b9350506040610fe887828801610f8d565b9250506060610ff987828801610f5a565b91505092959194509250565b61100e81610f6e565b82525050565b5f6020820190506110275f830184611005565b92915050565b5f5f6040838503121561104357611042610f40565b5b5f61105085828601610f8d565b925050602061106185828601610f8d565b9150509250929050565b5f5f6040838503121561108157611080610f40565b5b5f61108e85828601610f5a565b925050602061109f85828601610f8d565b9150509250929050565b5f82825260208201905092915050565b7f736c6970706167650000000000000000000000000000000000000000000000005f82015250565b5f6110ed6008836110a9565b91506110f8826110b9565b602082019050919050565b5f6020820190508181035f83015261111a816110e1565b9050919050565b5f6060820190506111345f830186610f18565b6111416020830185610f18565b61114e6040830184611005565b949350505050565b5f8115159050919050565b61116a81611156565b8114611174575f5ffd5b50565b5f8151905061118581611161565b92915050565b5f602082840312156111a05761119f610f40565b5b5f6111ad84828501611177565b91505092915050565b5f6040820190506111c95f830185610f18565b6111d66020830184611005565b9392505050565b5f815190506111eb81610f77565b92915050565b5f6020828403121561120657611205610f40565b5b5f611213848285016111dd565b91505092915050565b5f60808201905061122f5f830187610f18565b61123c6020830186611005565b6112496040830185610f18565b6112566060830184611005565b95945050505050565b7f4e487b71000000000000000000000000000000000000000000000000000000005f52601160045260245ffd5b5f61129682610f6e565b91506112a183610f6e565b92508282019050808211156112b9576112b861125f565b5b92915050565b5f6040820190506112d25f830185611005565b6112df6020830184611005565b9392505050565b5f6112f082610f6e565b91506112fb83610f6e565b925082820261130981610f6e565b915082820484148315176113205761131f61125f565b5b5092915050565b7f4e487b71000000000000000000000000000000000000000000000000000000005f52601260045260245ffd5b5f61135e82610f6e565b915061136983610f6e565b92508261137957611378611327565b5b828204905092915050565b7f6f766572666c6f770000000000000000000000000000000000000000000000005f82015250565b5f6113b86008836110a9565b91506113c382611384565b602082019050919050565b5f6020820190508181035f8301526113e5816113ac565b9050919050565b5f6040820190506113ff5f830185610e86565b61140c6020830184610e86565b939250505056fea264697066735822122007c6ae5a6f8c256b6285b01a5950925742da460e7c7eee23f29ddd5e53bf16ea64736f6c634300081e0033",
					"opcodes": "PUSH1 0xC0 PUSH1 0x40 MSTORE CALLVALUE DUP1 ISZERO PUSH2 0xF JUMPI PUSH0 PUSH0 REVERT JUMPDEST POP PUSH1 0x40 MLOAD PUSH2 0x173A CODESIZE SUB DUP1 PUSH2 0x173A DUP4 CODECOPY DUP2 DUP2 ADD PUSH1 0x40 MSTORE DUP2 ADD SWAP1 PUSH2 0x31 SWAP2 SWAP1 PUSH2 0x1B1 JUMP JUMPDEST DUP1 PUSH20 0xFFFFFFFFFFFFFFFFFFFFFFFFFFFFFFFFFFFFFFFF AND DUP3 PUSH20 0xFFFFFFFFFFFFFFFFFFFFFFFFFFFFFFFFFFFFFFFF AND SUB PUSH2 0x9F JUMPI PUSH1 0x40 MLOAD PUSH32 0x8C379A000000000000000000000000000000000000000000000000000000000 DUP2 MSTORE PUSH1 0x4 ADD PUSH2 0x96 SWAP1 PUSH2 0x249 JUMP JUMPDEST PUSH1 0x40 MLOAD DUP1 SWAP2 SUB SWAP1 REVERT JUMPDEST PUSH0 PUSH0 DUP3 PUSH20 0xFFFFFFFFFFFFFFFFFFFFFFFFFFFFFFFFFFFFFFFF AND DUP5 PUSH20 0xFFFFFFFFFFFFFFFFFFFFFFFFFFFFFFFFFFFFFFFF AND LT PUSH2 0xDB JUMPI DUP3 DUP5 PUSH2 0xDE JUMP JUMPDEST DUP4 DUP4 JUMPDEST SWAP2 POP SWAP2 POP DUP2 PUSH20 0xFFFFFFFFFFFFFFFFFFFFFFFFFFFFFFFFFFFFFFFF AND PUSH1 0x80 DUP2 PUSH20 0xFFFFFFFFFFFFFFFFFFFFFFFFFFFFFFFFFFFFFFFF AND DUP2 MSTORE POP POP DUP1 PUSH20 0xFFFFFFFFFFFFFFFFFFFFFFFFFFFFFFFFFFFFFFFF AND PUSH1 0xA0 DUP2 PUSH20 0xFFFFFFFFFFFFFFFFFFFFFFFFFFFFFFFFFFFFFFFF AND DUP2 MSTORE POP POP POP POP POP POP PUSH2 0x267 JUMP JUMPDEST PUSH0 PUSH0 REVERT JUMPDEST PUSH0 PUSH20 0xFFFFFFFFFFFFFFFFFFFFFFFFFFFFFFFFFFFFFFFF DUP3 AND SWAP1 POP SWAP2 SWAP1 POP JUMP JUMPDEST PUSH0 PUSH2 0x180 DUP3 PUSH2 0x157 JUMP JUMPDEST SWAP1 POP SWAP2 SWAP1 POP JUMP JUMPDEST PUSH2 0x190 DUP2 PUSH2 0x176 JUMP JUMPDEST DUP2 EQ PUSH2 0x19A JUMPI PUSH0 PUSH0 REVERT JUMPDEST POP JUMP JUMPDEST PUSH0 DUP2 MLOAD SWAP1 POP PUSH2 0x1AB DUP2 PUSH2 0x187 JUMP JUMPDEST SWAP3 SWAP2 POP POP JUMP JUMPDEST PUSH0 PUSH0 PUSH1 0x40 DUP4 DUP6 SUB SLT ISZERO PUSH2 0x1C7 JUMPI PUSH2 0x1C6 PUSH2 0x153 JUMP JUMPDEST JUMPDEST PUSH0 PUSH2 0x1D4 DUP6 DUP3 DUP7 ADD PUSH2 0x19D JUMP JUMPDEST SWAP3 POP POP PUSH1 0x20 PUSH2 0x1E5 DUP6 DUP3 DUP7 ADD PUSH2 0x19D JUMP JUMPDEST SWAP2 POP POP SWAP3 POP SWAP3 SWAP1 POP JUMP JUMPDEST PUSH0 DUP3 DUP3 MSTORE PUSH1 0x20 DUP3 ADD SWAP1 POP SWAP3 SWAP2 POP POP JUMP JUMPDEST PUSH32 0x6964656E746963616C0000000000000000000000000000000000000000000000 PUSH0 DUP3 ADD MSTORE POP JUMP JUMPDEST PUSH0 PUSH2 0x233 PUSH1 0x9 DUP4 PUSH2 0x1EF JUMP JUMPDEST SWAP2 POP PUSH2 0x23E DUP3 PUSH2 0x1FF JUMP JUMPDEST PUSH1 0x20 DUP3 ADD SWAP1 POP SWAP2 SWAP1 POP JUMP JUMPDEST PUSH0 PUSH1 0x20 DUP3 ADD SWAP1 POP DUP2 DUP2 SUB PUSH0 DUP4 ADD MSTORE PUSH2 0x260 DUP2 PUSH2 0x227 JUMP JUMPDEST SWAP1 POP SWAP2 SWAP1 POP JUMP JUMPDEST PUSH1 0x80 MLOAD PUSH1 0xA0 MLOAD PUSH2 0x1449 PUSH2 0x2F1 PUSH0 CODECOPY PUSH0 DUP2 DUP2 PUSH2 0x32F ADD MSTORE DUP2 DUP2 PUSH2 0x405 ADD MSTORE DUP2 DUP2 PUSH2 0x458 ADD MSTORE DUP2 DUP2 PUSH2 0x6D0 ADD MSTORE DUP2 DUP2 PUSH2 0x827 ADD MSTORE DUP2 DUP2 PUSH2 0x93F ADD MSTORE DUP2 DUP2 PUSH2 0xBC1 ADD MSTORE PUSH2 0xCE3 ADD MSTORE PUSH0 DUP2 DUP2 PUSH2 0x195 ADD MSTORE DUP2 DUP2 PUSH2 0x209 ADD MSTORE DUP2 DUP2 PUSH2 0x25C ADD MSTORE DUP2 DUP2 PUSH2 0x52B ADD MSTORE DUP2 DUP2 PUSH2 0x635 ADD MSTORE DUP2 DUP2 PUSH2 0x7AE ADD MSTORE DUP2 DUP2 PUSH2 0x801 ADD MSTORE DUP2 DUP2 PUSH2 0x86C ADD MSTORE PUSH2 0xB6F ADD MSTORE PUSH2 0x1449 PUSH0 RETURN INVALID PUSH1 0x80 PUSH1 0x40 MSTORE CALLVALUE DUP1 ISZERO PUSH2 0xF JUMPI PUSH0 PUSH0 REVERT JUMPDEST POP PUSH1 0x4 CALLDATASIZE LT PUSH2 0x60 JUMPI PUSH0 CALLDATALOAD PUSH1 0xE0 SHR DUP1 PUSH4 0x902F1AC EQ PUSH2 0x64 JUMPI DUP1 PUSH4 0xDFE1681 EQ PUSH2 0x84 JUMPI DUP1 PUSH4 0x6D8BB4A3 EQ PUSH2 0xA2 JUMPI DUP1 PUSH4 0x9CD441DA EQ PUSH2 0xD2 JUMPI DUP1 PUSH4 0xCA706BCF EQ PUSH2 0xEE JUMPI DUP1 PUSH4 0xD21220A7 EQ PUSH2 0x11E JUMPI JUMPDEST PUSH0 PUSH0 REVERT JUMPDEST PUSH2 0x6C PUSH2 0x13C JUMP JUMPDEST PUSH1 0x40 MLOAD PUSH2 0x7B SWAP4 SWAP3 SWAP2 SWAP1 PUSH2 0xEB3 JUMP JUMPDEST PUSH1 0x40 MLOAD DUP1 SWAP2 SUB SWAP1 RETURN JUMPDEST PUSH2 0x8C PUSH2 0x193 JUMP JUMPDEST PUSH1 0x40 MLOAD PUSH2 0x99 SWAP2 SWAP1 PUSH2 0xF27 JUMP JUMPDEST PUSH1 0x40 MLOAD DUP1 SWAP2 SUB SWAP1 RETURN JUMPDEST PUSH2 0xBC PUSH1 0x4 DUP1 CALLDATASIZE SUB DUP2 ADD SWAP1 PUSH2 0xB7 SWAP2 SWAP1 PUSH2 0xFA1 JUMP JUMPDEST PUSH2 0x1B7 JUMP JUMPDEST PUSH1 0x40 MLOAD PUSH2 0xC9 SWAP2 SWAP1 PUSH2 0x1014 JUMP JUMPDEST PUSH1 0x40 MLOAD DUP1 SWAP2 SUB SWAP1 RETURN JUMPDEST PUSH2 0xEC PUSH1 0x4 DUP1 CALLDATASIZE SUB DUP2 ADD SWAP1 PUSH2 0xE7 SWAP2 SWAP1 PUSH2 0x102D JUMP JUMPDEST PUSH2 0x86A JUMP JUMPDEST STOP JUMPDEST PUSH2 0x108 PUSH1 0x4 DUP1 CALLDATASIZE SUB DUP2 ADD SWAP1 PUSH2 0x103 SWAP2 SWAP1 PUSH2 0x106B JUMP JUMPDEST PUSH2 0xABF JUMP JUMPDEST PUSH1 0x40 MLOAD PUSH2 0x115 SWAP2 SWAP1 PUSH2 0x1014 JUMP JUMPDEST PUSH1 0x40 MLOAD DUP1 SWAP2 SUB SWAP1 RETURN JUMPDEST PUSH2 0x126 PUSH2 0xCE1 JUMP JUMPDEST PUSH1 0x40 MLOAD PUSH2 0x133 SWAP2 SWAP1 PUSH2 0xF27 JUMP JUMPDEST PUSH1 0x40 MLOAD DUP1 SWAP2 SUB SWAP1 RETURN JUMPDEST PUSH0 PUSH0 PUSH0 PUSH0 PUSH0 SWAP1 SLOAD SWAP1 PUSH2 0x100 EXP SWAP1 DIV PUSH14 0xFFFFFFFFFFFFFFFFFFFFFFFFFFFF AND PUSH0 PUSH1 0xE SWAP1 SLOAD SWAP1 PUSH2 0x100 EXP SWAP1 DIV PUSH14 0xFFFFFFFFFFFFFFFFFFFFFFFFFFFF AND PUSH0 PUSH1 0x1C SWAP1 SLOAD SWAP1 PUSH2 0x100 EXP SWAP1 DIV PUSH4 0xFFFFFFFF AND SWAP3 POP SWAP3 POP SWAP3 POP SWAP1 SWAP2 SWAP3 JUMP JUMPDEST PUSH32 0x0 DUP2 JUMP JUMPDEST PUSH0 PUSH2 0x1C2 DUP6 DUP6 PUSH2 0xABF JUMP JUMPDEST SWAP1 POP DUP3 DUP2 LT ISZERO PUSH2 0x207 JUMPI PUSH1 0x40 MLOAD PUSH32 0x8C379A000000000000000000000000000000000000000000000000000000000 DUP2 MSTORE PUSH1 0x4 ADD PUSH2 0x1FE SWAP1 PUSH2 0x1103 JUMP JUMPDEST PUSH1 0x40 MLOAD DUP1 SWAP2 SUB SWAP1 REVERT JUMPDEST PUSH32 0x0 PUSH20 0xFFFFFFFFFFFFFFFFFFFFFFFFFFFFFFFFFFFFFFFF AND DUP6 PUSH20 0xFFFFFFFFFFFFFFFFFFFFFFFFFFFFFFFFFFFFFFFF AND SUB PUSH2 0x403 JUMPI PUSH32 0x0 PUSH20 0xFFFFFFFFFFFFFFFFFFFFFFFFFFFFFFFFFFFFFFFF AND PUSH4 0x23B872DD CALLER ADDRESS DUP8 PUSH1 0x40 MLOAD DUP5 PUSH4 0xFFFFFFFF AND PUSH1 0xE0 SHL DUP2 MSTORE PUSH1 0x4 ADD PUSH2 0x2B7 SWAP4 SWAP3 SWAP2 SWAP1 PUSH2 0x1121 JUMP JUMPDEST PUSH1 0x20 PUSH1 0x40 MLOAD DUP1 DUP4 SUB DUP2 PUSH0 DUP8 GAS CALL ISZERO DUP1 ISZERO PUSH2 0x2D3 JUMPI RETURNDATASIZE PUSH0 PUSH0 RETURNDATACOPY RETURNDATASIZE PUSH0 REVERT JUMPDEST POP POP POP POP PUSH1 0x40 MLOAD RETURNDATASIZE PUSH1 0x1F NOT PUSH1 0x1F DUP3 ADD AND DUP3 ADD DUP1 PUSH1 0x40 MSTORE POP DUP2 ADD SWAP1 PUSH2 0x2F7 SWAP2 SWAP1 PUSH2 0x118B JUMP JUMPDEST PUSH2 0x32D JUMPI PUSH1 0x40 MLOAD PUSH32 0x90B8EC1800000000000000000000000000000000000000000000000000000000 DUP2 MSTORE PUSH1 0x4 ADD PUSH1 0x40 MLOAD DUP1 SWAP2 SUB SWAP1 REVERT JUMPDEST PUSH32 0x0 PUSH20 0xFFFFFFFFFFFFFFFFFFFFFFFFFFFFFFFFFFFFFFFF AND PUSH4 0xA9059CBB DUP4 DUP4 PUSH1 0x40 MLOAD DUP4 PUSH4 0xFFFFFFFF AND PUSH1 0xE0 SHL DUP2 MSTORE PUSH1 0x4 ADD PUSH2 0x388 SWAP3 SWAP2 SWAP1 PUSH2 0x11B6 JUMP JUMPDEST PUSH1 0x20 PUSH1 0x40 MLOAD DUP1 DUP4 SUB DUP2 PUSH0 DUP8 GAS CALL ISZERO DUP1 ISZERO PUSH2 0x3A4 JUMPI RETURNDATASIZE PUSH0 PUSH0 RETURNDATACOPY RETURNDATASIZE PUSH0 REVERT JUMPDEST POP POP POP POP PUSH1 0x40 MLOAD RETURNDATASIZE PUSH1 0x1F NOT PUSH1 0x1F DUP3 ADD AND DUP3 ADD DUP1 PUSH1 0x40 MSTORE POP DUP2 ADD SWAP1 PUSH2 0x3C8 SWAP2 SWAP1 PUSH2 0x118B JUMP JUMPDEST PUSH2 0x3FE JUMPI PUSH1 0x40 MLOAD PUSH32 0x90B8EC1800000000000000000000000000000000000000000000000000000000 DUP2 MSTORE PUSH1 0x4 ADD PUSH1 0x40 MLOAD DUP1 SWAP2 SUB SWAP1 REVERT JUMPDEST PUSH2 0x632 JUMP JUMPDEST PUSH32 0x0 PUSH20 0xFFFFFFFFFFFFFFFFFFFFFFFFFFFFFFFFFFFFFFFF AND DUP6 PUSH20 0xFFFFFFFFFFFFFFFFFFFFFFFFFFFFFFFFFFFFFFFF AND SUB PUSH2 0x5FF JUMPI PUSH32 0x0 PUSH20 0xFFFFFFFFFFFFFFFFFFFFFFFFFFFFFFFFFFFFFFFF AND PUSH4 0x23B872DD CALLER ADDRESS DUP8 PUSH1 0x40 MLOAD DUP5 PUSH4 0xFFFFFFFF AND PUSH1 0xE0 SHL DUP2 MSTORE PUSH1 0x4 ADD PUSH2 0x4B3 SWAP4 SWAP3 SWAP2 SWAP1 PUSH2 0x1121 JUMP JUMPDEST PUSH1 0x20 PUSH1 0x40 MLOAD DUP1 DUP4 SUB DUP2 PUSH0 DUP8 GAS CALL ISZERO DUP1 ISZERO PUSH2 0x4CF JUMPI RETURNDATASIZE PUSH0 PUSH0 RETURNDATACOPY RETURNDATASIZE PUSH0 REVERT JUMPDEST POP POP POP POP PUSH1 0x40 MLOAD RETURNDATASIZE PUSH1 0x1F NOT PUSH1 0x1F DUP3 ADD AND DUP3 ADD DUP1 PUSH1 0x40 MSTORE POP DUP2 ADD SWAP1 PUSH2 0x4F3 SWAP2 SWAP1 PUSH2 0x118B JUMP JUMPDEST PUSH2 0x529 JUMPI PUSH1 0x40 MLOAD PUSH32 0x90B8EC1800000000000000000000000000000000000000000000000000000000 DUP2 MSTORE PUSH1 0x4 ADD PUSH1 0x40 MLOAD DUP1 SWAP2 SUB SWAP1 REVERT JUMPDEST PUSH32 0x0 PUSH20 0xFFFFFFFFFFFFFFFFFFFFFFFFFFFFFFFFFFFFFFFF AND PUSH4 0xA9059CBB DUP4 DUP4 PUSH1 0x40 MLOAD DUP4 PUSH4 0xFFFFFFFF AND PUSH1 0xE0 SHL DUP2 MSTORE PUSH1 0x4 ADD PUSH2 0x584 SWAP3 SWAP2 SWAP1 PUSH2 0x11B6 JUMP JUMPDEST PUSH1 0x20 PUSH1 0x40 MLOAD DUP1 DUP4 SUB DUP2 PUSH0 DUP8 GAS CALL ISZERO DUP1 ISZERO PUSH2 0x5A0 JUMPI RETURNDATASIZE PUSH0 PUSH0 RETURNDATACOPY RETURNDATASIZE PUSH0 REVERT JUMPDEST POP POP POP POP PUSH1 0x40 MLOAD RETURNDATASIZE PUSH1 0x1F NOT PUSH1 0x1F DUP3 ADD AND DUP3 ADD DUP1 PUSH1 0x40 MSTORE POP DUP2 ADD SWAP1 PUSH2 0x5C4 SWAP2 SWAP1 PUSH2 0x118B JUMP JUMPDEST PUSH2 0x5FA JUMPI PUSH1 0x40 MLOAD PUSH32 0x90B8EC1800000000000000000000000000000000000000000000000000000000 DUP2 MSTORE PUSH1 0x4 ADD PUSH1 0x40 MLOAD DUP1 SWAP2 SUB SWAP1 REVERT JUMPDEST PUSH2 0x631 JUMP JUMPDEST PUSH1 0x40 MLOAD PUSH32 0xC1AB6DC100000000000000000000000000000000000000000000000000000000 DUP2 MSTORE PUSH1 0x4 ADD PUSH1 0x40 MLOAD DUP1 SWAP2 SUB SWAP1 REVERT JUMPDEST JUMPDEST PUSH0 PUSH32 0x0 PUSH20 0xFFFFFFFFFFFFFFFFFFFFFFFFFFFFFFFFFFFFFFFF AND PUSH4 0x70A08231 ADDRESS PUSH1 0x40 MLOAD DUP3 PUSH4 0xFFFFFFFF AND PUSH1 0xE0 SHL DUP2 MSTORE PUSH1 0x4 ADD PUSH2 0x68C SWAP2 SWAP1 PUSH2 0xF27 JUMP JUMPDEST PUSH1 0x20 PUSH1 0x40 MLOAD DUP1 DUP4 SUB DUP2 DUP7 GAS STATICCALL ISZERO DUP1 ISZERO PUSH2 0x6A7 JUMPI RETURNDATASIZE PUSH0 PUSH0 RETURNDATACOPY RETURNDATASIZE PUSH0 REVERT JUMPDEST POP POP POP POP PUSH1 0x40 MLOAD RETURNDATASIZE PUSH1 0x1F NOT PUSH1 0x1F DUP3 ADD AND DUP3 ADD DUP1 PUSH1 0x40 MSTORE POP DUP2 ADD SWAP1 PUSH2 0x6CB SWAP2 SWAP1 PUSH2 0x11F1 JUMP JUMPDEST SWAP1 POP PUSH0 PUSH32 0x0 PUSH20 0xFFFFFFFFFFFFFFFFFFFFFFFFFFFFFFFFFFFFFFFF AND PUSH4 0x70A08231 ADDRESS PUSH1 0x40 MLOAD DUP3 PUSH4 0xFFFFFFFF AND PUSH1 0xE0 SHL DUP2 MSTORE PUSH1 0x4 ADD PUSH2 0x727 SWAP2 SWAP1 PUSH2 0xF27 JUMP JUMPDEST PUSH1 0x20 PUSH1 0x40 MLOAD DUP1 DUP4 SUB DUP2 DUP7 GAS STATICCALL ISZERO DUP1 ISZERO PUSH2 0x742 JUMPI RETURNDATASIZE PUSH0 PUSH0 RETURNDATACOPY RETURNDATASIZE PUSH0 REVERT JUMPDEST POP POP POP POP PUSH1 0x40 MLOAD RETURNDATASIZE PUSH1 0x1F NOT PUSH1 0x1F DUP3 ADD AND DUP3 ADD DUP1 PUSH1 0x40 MSTORE POP DUP2 ADD SWAP1 PUSH2 0x766 SWAP2 SWAP1 PUSH2 0x11F1 JUMP JUMPDEST SWAP1 POP PUSH2 0x772 DUP3 DUP3 PUSH2 0xD05 JUMP JUMPDEST CALLER PUSH20 0xFFFFFFFFFFFFFFFFFFFFFFFFFFFFFFFFFFFFFFFF AND PUSH32 0x5380CF97D8F645D3C4896DA60C053458DCA03A3A31CEC642AC80E1DDF0D8D02A DUP9 DUP9 PUSH32 0x0 PUSH20 0xFFFFFFFFFFFFFFFFFFFFFFFFFFFFFFFFFFFFFFFF AND DUP12 PUSH20 0xFFFFFFFFFFFFFFFFFFFFFFFFFFFFFFFFFFFFFFFF AND EQ PUSH2 0x825 JUMPI PUSH32 0x0 PUSH2 0x847 JUMP JUMPDEST PUSH32 0x0 JUMPDEST DUP8 PUSH1 0x40 MLOAD PUSH2 0x858 SWAP5 SWAP4 SWAP3 SWAP2 SWAP1 PUSH2 0x121C JUMP JUMPDEST PUSH1 0x40 MLOAD DUP1 SWAP2 SUB SWAP1 LOG2 POP POP SWAP5 SWAP4 POP POP POP POP JUMP JUMPDEST PUSH32 0x0 PUSH20 0xFFFFFFFFFFFFFFFFFFFFFFFFFFFFFFFFFFFFFFFF AND PUSH4 0x23B872DD CALLER ADDRESS DUP6 PUSH1 0x40 MLOAD DUP5 PUSH4 0xFFFFFFFF AND PUSH1 0xE0 SHL DUP2 MSTORE PUSH1 0x4 ADD PUSH2 0x8C7 SWAP4 SWAP3 SWAP2 SWAP1 PUSH2 0x1121 JUMP JUMPDEST PUSH1 0x20 PUSH1 0x40 MLOAD DUP1 DUP4 SUB DUP2 PUSH0 DUP8 GAS CALL ISZERO DUP1 ISZERO PUSH2 0x8E3 JUMPI RETURNDATASIZE PUSH0 PUSH0 RETURNDATACOPY RETURNDATASIZE PUSH0 REVERT JUMPDEST POP POP POP POP PUSH1 0x40 MLOAD RETURNDATASIZE PUSH1 0x1F NOT PUSH1 0x1F DUP3 ADD AND DUP3 ADD DUP1 PUSH1 0x40 MSTORE POP DUP2 ADD SWAP1 PUSH2 0x907 SWAP2 SWAP1 PUSH2 0x118B JUMP JUMPDEST PUSH2 0x93D JUMPI PUSH1 0x40 MLOAD PUSH32 0x90B8EC1800000000000000000000000000000000000000000000000000000000 DUP2 MSTORE PUSH1 0x4 ADD PUSH1 0x40 MLOAD DUP1 SWAP2 SUB SWAP1 REVERT JUMPDEST PUSH32 0x0 PUSH20 0xFFFFFFFFFFFFFFFFFFFFFFFFFFFFFFFFFFFFFFFF AND PUSH4 0x23B872DD CALLER ADDRESS DUP5 PUSH1 0x40 MLOAD DUP5 PUSH4 0xFFFFFFFF AND PUSH1 0xE0 SHL DUP2 MSTORE PUSH1 0x4 ADD PUSH2 0x99A SWAP4 SWAP3 SWAP2 SWAP1 PUSH2 0x1121 JUMP JUMPDEST PUSH1 0x20 PUSH1 0x40 MLOAD DUP1 DUP4 SUB DUP2 PUSH0 DUP8 GAS CALL ISZERO DUP1 ISZERO PUSH2 0x9B6 JUMPI RETURNDATASIZE PUSH0 PUSH0 RETURNDATACOPY RETURNDATASIZE PUSH0 REVERT JUMPDEST POP POP POP POP PUSH1 0x40 MLOAD RETURNDATASIZE PUSH1 0x1F NOT PUSH1 0x1F DUP3 ADD AND DUP3 ADD DUP1 PUSH1 0x40 MSTORE POP DUP2 ADD SWAP1 PUSH2 0x9DA SWAP2 SWAP1 PUSH2 0x118B JUMP JUMPDEST PUSH2 0xA10 JUMPI PUSH1 0x40 MLOAD PUSH32 0x90B8EC1800000000000000000000000000000000000000000000000000000000 DUP2 MSTORE PUSH1 0x4 ADD PUSH1 0x40 MLOAD DUP1 SWAP2 SUB SWAP1 REVERT JUMPDEST PUSH0 PUSH0 PUSH2 0xA1A PUSH2 0x13C JUMP JUMPDEST POP SWAP2 POP SWAP2 POP PUSH0 DUP5 DUP4 PUSH14 0xFFFFFFFFFFFFFFFFFFFFFFFFFFFF AND PUSH2 0xA3C SWAP2 SWAP1 PUSH2 0x128C JUMP JUMPDEST SWAP1 POP PUSH0 DUP5 DUP4 PUSH14 0xFFFFFFFFFFFFFFFFFFFFFFFFFFFF AND PUSH2 0xA5B SWAP2 SWAP1 PUSH2 0x128C JUMP JUMPDEST SWAP1 POP PUSH2 0xA67 DUP3 DUP3 PUSH2 0xD05 JUMP JUMPDEST CALLER PUSH20 0xFFFFFFFFFFFFFFFFFFFFFFFFFFFFFFFFFFFFFFFF AND PUSH32 0x6239653922AC7BEA6AA2B19DC486B9361821D37712EB796ADFD38D81DE278CA DUP8 DUP8 PUSH1 0x40 MLOAD PUSH2 0xAAF SWAP3 SWAP2 SWAP1 PUSH2 0x12BF JUMP JUMPDEST PUSH1 0x40 MLOAD DUP1 SWAP2 SUB SWAP1 LOG2 POP POP POP POP POP POP JUMP JUMPDEST PUSH0 PUSH0 DUP3 SUB PUSH2 0xAF9 JUMPI PUSH1 0x40 MLOAD PUSH32 0xF8B3BB6100000000000000000000000000000000000000000000000000000000 DUP2 MSTORE PUSH1 0x4 ADD PUSH1 0x40 MLOAD DUP1 SWAP2 SUB SWAP1 REVERT JUMPDEST PUSH0 PUSH0 PUSH2 0xB03 PUSH2 0x13C JUMP JUMPDEST POP SWAP2 POP SWAP2 POP PUSH0 DUP3 PUSH14 0xFFFFFFFFFFFFFFFFFFFFFFFFFFFF AND EQ DUP1 PUSH2 0xB35 JUMPI POP PUSH0 DUP2 PUSH14 0xFFFFFFFFFFFFFFFFFFFFFFFFFFFF AND EQ JUMPDEST ISZERO PUSH2 0xB6C JUMPI PUSH1 0x40 MLOAD PUSH32 0xBB55FD2700000000000000000000000000000000000000000000000000000000 DUP2 MSTORE PUSH1 0x4 ADD PUSH1 0x40 MLOAD DUP1 SWAP2 SUB SWAP1 REVERT JUMPDEST PUSH0 PUSH32 0x0 PUSH20 0xFFFFFFFFFFFFFFFFFFFFFFFFFFFFFFFFFFFFFFFF AND DUP7 PUSH20 0xFFFFFFFFFFFFFFFFFFFFFFFFFFFFFFFFFFFFFFFF AND EQ SWAP1 POP PUSH0 PUSH32 0x0 PUSH20 0xFFFFFFFFFFFFFFFFFFFFFFFFFFFFFFFFFFFFFFFF AND DUP8 PUSH20 0xFFFFFFFFFFFFFFFFFFFFFFFFFFFFFFFFFFFFFFFF AND EQ SWAP1 POP DUP2 ISZERO DUP1 ISZERO PUSH2 0xC1C JUMPI POP DUP1 ISZERO JUMPDEST ISZERO PUSH2 0xC53 JUMPI PUSH1 0x40 MLOAD PUSH32 0xC1AB6DC100000000000000000000000000000000000000000000000000000000 DUP2 MSTORE PUSH1 0x4 ADD PUSH1 0x40 MLOAD DUP1 SWAP2 SUB SWAP1 REVERT JUMPDEST PUSH0 PUSH0 DUP4 PUSH2 0xC61 JUMPI DUP5 DUP7 PUSH2 0xC64 JUMP JUMPDEST DUP6 DUP6 JUMPDEST PUSH14 0xFFFFFFFFFFFFFFFFFFFFFFFFFFFF AND SWAP2 POP PUSH14 0xFFFFFFFFFFFFFFFFFFFFFFFFFFFF AND SWAP2 POP PUSH0 PUSH2 0x3E5 DUP10 PUSH2 0xC97 SWAP2 SWAP1 PUSH2 0x12E6 JUMP JUMPDEST SWAP1 POP PUSH0 DUP3 DUP3 PUSH2 0xCA6 SWAP2 SWAP1 PUSH2 0x12E6 JUMP JUMPDEST SWAP1 POP PUSH0 DUP3 PUSH2 0x3E8 DUP7 PUSH2 0xCB8 SWAP2 SWAP1 PUSH2 0x12E6 JUMP JUMPDEST PUSH2 0xCC2 SWAP2 SWAP1 PUSH2 0x128C JUMP JUMPDEST SWAP1 POP DUP1 DUP3 PUSH2 0xCD0 SWAP2 SWAP1 PUSH2 0x1354 JUMP JUMPDEST SWAP10 POP POP POP POP POP POP POP POP POP POP SWAP3 SWAP2 POP POP JUMP JUMPDEST PUSH32 0x0 DUP2 JUMP JUMPDEST PUSH14 0xFFFFFFFFFFFFFFFFFFFFFFFFFFFF DUP1 AND DUP3 GT ISZERO DUP1 ISZERO PUSH2 0xD35 JUMPI POP PUSH14 0xFFFFFFFFFFFFFFFFFFFFFFFFFFFF DUP1 AND DUP2 GT ISZERO JUMPDEST PUSH2 0xD74 JUMPI PUSH1 0x40 MLOAD PUSH32 0x8C379A000000000000000000000000000000000000000000000000000000000 DUP2 MSTORE PUSH1 0x4 ADD PUSH2 0xD6B SWAP1 PUSH2 0x13CE JUMP JUMPDEST PUSH1 0x40 MLOAD DUP1 SWAP2 SUB SWAP1 REVERT JUMPDEST DUP2 PUSH0 PUSH0 PUSH2 0x100 EXP DUP2 SLOAD DUP2 PUSH14 0xFFFFFFFFFFFFFFFFFFFFFFFFFFFF MUL NOT AND SWAP1 DUP4 PUSH14 0xFFFFFFFFFFFFFFFFFFFFFFFFFFFF AND MUL OR SWAP1 SSTORE POP DUP1 PUSH0 PUSH1 0xE PUSH2 0x100 EXP DUP2 SLOAD DUP2 PUSH14 0xFFFFFFFFFFFFFFFFFFFFFFFFFFFF MUL NOT AND SWAP1 DUP4 PUSH14 0xFFFFFFFFFFFFFFFFFFFFFFFFFFFF AND MUL OR SWAP1 SSTORE POP TIMESTAMP PUSH0 PUSH1 0x1C PUSH2 0x100 EXP DUP2 SLOAD DUP2 PUSH4 0xFFFFFFFF MUL NOT AND SWAP1 DUP4 PUSH4 0xFFFFFFFF AND MUL OR SWAP1 SSTORE POP PUSH32 0x1C411E9A96E071241C2F21F7726B17AE89E3CAB4C78BE50E062B03A9FFFBBAD1 PUSH0 PUSH0 SWAP1 SLOAD SWAP1 PUSH2 0x100 EXP SWAP1 DIV PUSH14 0xFFFFFFFFFFFFFFFFFFFFFFFFFFFF AND PUSH0 PUSH1 0xE SWAP1 SLOAD SWAP1 PUSH2 0x100 EXP SWAP1 DIV PUSH14 0xFFFFFFFFFFFFFFFFFFFFFFFFFFFF AND PUSH1 0x40 MLOAD PUSH2 0xE61 SWAP3 SWAP2 SWAP1 PUSH2 0x13EC JUMP JUMPDEST PUSH1 0x40 MLOAD DUP1 SWAP2 SUB SWAP1 LOG1 POP POP JUMP JUMPDEST PUSH0 PUSH14 0xFFFFFFFFFFFFFFFFFFFFFFFFFFFF DUP3 AND SWAP1 POP SWAP2 SWAP1 POP JUMP JUMPDEST PUSH2 0xE8F DUP2 PUSH2 0xE6D JUMP JUMPDEST DUP3 MSTORE POP POP JUMP JUMPDEST PUSH0 PUSH4 0xFFFFFFFF DUP3 AND SWAP1 POP SWAP2 SWAP1 POP JUMP JUMPDEST PUSH2 0xEAD DUP2 PUSH2 0xE95 JUMP JUMPDEST DUP3 MSTORE POP POP JUMP JUMPDEST PUSH0 PUSH1 0x60 DUP3 ADD SWAP1 POP PUSH2 0xEC6 PUSH0 DUP4 ADD DUP7 PUSH2 0xE86 JUMP JUMPDEST PUSH2 0xED3 PUSH1 0x20 DUP4 ADD DUP6 PUSH2 0xE86 JUMP JUMPDEST PUSH2 0xEE0 PUSH1 0x40 DUP4 ADD DUP5 PUSH2 0xEA4 JUMP JUMPDEST SWAP5 SWAP4 POP POP POP POP JUMP JUMPDEST PUSH0 PUSH20 0xFFFFFFFFFFFFFFFFFFFFFFFFFFFFFFFFFFFFFFFF DUP3 AND SWAP1 POP SWAP2 SWAP1 POP JUMP JUMPDEST PUSH0 PUSH2 0xF11 DUP3 PUSH2 0xEE8 JUMP JUMPDEST SWAP1 POP SWAP2 SWAP1 POP JUMP JUMPDEST PUSH2 0xF21 DUP2 PUSH2 0xF07 JUMP JUMPDEST DUP3 MSTORE POP POP JUMP JUMPDEST PUSH0 PUSH1 0x20 DUP3 ADD SWAP1 POP PUSH2 0xF3A PUSH0 DUP4 ADD DUP5 PUSH2 0xF18 JUMP JUMPDEST SWAP3 SWAP2 POP POP JUMP JUMPDEST PUSH0 PUSH0 REVERT JUMPDEST PUSH2 0xF4D DUP2 PUSH2 0xF07 JUMP JUMPDEST DUP2 EQ PUSH2 0xF57 JUMPI PUSH0 PUSH0 REVERT JUMPDEST POP JUMP JUMPDEST PUSH0 DUP2 CALLDATALOAD SWAP1 POP PUSH2 0xF68 DUP2 PUSH2 0xF44 JUMP JUMPDEST SWAP3 SWAP2 POP POP JUMP JUMPDEST PUSH0 DUP2 SWAP1 POP SWAP2 SWAP1 POP JUMP JUMPDEST PUSH2 0xF80 DUP2 PUSH2 0xF6E JUMP JUMPDEST DUP2 EQ PUSH2 0xF8A JUMPI PUSH0 PUSH0 REVERT JUMPDEST POP JUMP JUMPDEST PUSH0 DUP2 CALLDATALOAD SWAP1 POP PUSH2 0xF9B DUP2 PUSH2 0xF77 JUMP JUMPDEST SWAP3 SWAP2 POP POP JUMP JUMPDEST PUSH0 PUSH0 PUSH0 PUSH0 PUSH1 0x80 DUP6 DUP8 SUB SLT ISZERO PUSH2 0xFB9 JUMPI PUSH2 0xFB8 PUSH2 0xF40 JUMP JUMPDEST JUMPDEST PUSH0 PUSH2 0xFC6 DUP8 DUP3 DUP9 ADD PUSH2 0xF5A JUMP JUMPDEST SWAP5 POP POP PUSH1 0x20 PUSH2 0xFD7 DUP8 DUP3 DUP9 ADD PUSH2 0xF8D JUMP JUMPDEST SWAP4 POP POP PUSH1 0x40 PUSH2 0xFE8 DUP8 DUP3 DUP9 ADD PUSH2 0xF8D JUMP JUMPDEST SWAP3 POP POP PUSH1 0x60 PUSH2 0xFF9 DUP8 DUP3 DUP9 ADD PUSH2 0xF5A JUMP JUMPDEST SWAP2 POP POP SWAP3 SWAP6 SWAP2 SWAP5 POP SWAP3 POP JUMP JUMPDEST PUSH2 0x100E DUP2 PUSH2 0xF6E JUMP JUMPDEST DUP3 MSTORE POP POP JUMP JUMPDEST PUSH0 PUSH1 0x20 DUP3 ADD SWAP1 POP PUSH2 0x1027 PUSH0 DUP4 ADD DUP5 PUSH2 0x1005 JUMP JUMPDEST SWAP3 SWAP2 POP POP JUMP JUMPDEST PUSH0 PUSH0 PUSH1 0x40 DUP4 DUP6 SUB SLT ISZERO PUSH2 0x1043 JUMPI PUSH2 0x1042 PUSH2 0xF40 JUMP JUMPDEST JUMPDEST PUSH0 PUSH2 0x1050 DUP6 DUP3 DUP7 ADD PUSH2 0xF8D JUMP JUMPDEST SWAP3 POP POP PUSH1 0x20 PUSH2 0x1061 DUP6 DUP3 DUP7 ADD PUSH2 0xF8D JUMP JUMPDEST SWAP2 POP POP SWAP3 POP SWAP3 SWAP1 POP JUMP JUMPDEST PUSH0 PUSH0 PUSH1 0x40 DUP4 DUP6 SUB SLT ISZERO PUSH2 0x1081 JUMPI PUSH2 0x1080 PUSH2 0xF40 JUMP JUMPDEST JUMPDEST PUSH0 PUSH2 0x108E DUP6 DUP3 DUP7 ADD PUSH2 0xF5A JUMP JUMPDEST SWAP3 POP POP PUSH1 0x20 PUSH2 0x109F DUP6 DUP3 DUP7 ADD PUSH2 0xF8D JUMP JUMPDEST SWAP2 POP POP SWAP3 POP SWAP3 SWAP1 POP JUMP JUMPDEST PUSH0 DUP3 DUP3 MSTORE PUSH1 0x20 DUP3 ADD SWAP1 POP SWAP3 SWAP2 POP POP JUMP JUMPDEST PUSH32 0x736C697070616765000000000000000000000000000000000000000000000000 PUSH0 DUP3 ADD MSTORE POP JUMP JUMPDEST PUSH0 PUSH2 0x10ED PUSH1 0x8 DUP4 PUSH2 0x10A9 JUMP JUMPDEST SWAP2 POP PUSH2 0x10F8 DUP3 PUSH2 0x10B9 JUMP JUMPDEST PUSH1 0x20 DUP3 ADD SWAP1 POP SWAP2 SWAP1 POP JUMP JUMPDEST PUSH0 PUSH1 0x20 DUP3 ADD SWAP1 POP DUP2 DUP2 SUB PUSH0 DUP4 ADD MSTORE PUSH2 0x111A DUP2 PUSH2 0x10E1 JUMP JUMPDEST SWAP1 POP SWAP2 SWAP1 POP JUMP JUMPDEST PUSH0 PUSH1 0x60 DUP3 ADD SWAP1 POP PUSH2 0x1134 PUSH0 DUP4 ADD DUP7 PUSH2 0xF18 JUMP JUMPDEST PUSH2 0x1141 PUSH1 0x20 DUP4 ADD DUP6 PUSH2 0xF18 JUMP JUMPDEST PUSH2 0x114E PUSH1 0x40 DUP4 ADD DUP5 PUSH2 0x1005 JUMP JUMPDEST SWAP5 SWAP4 POP POP POP POP JUMP JUMPDEST PUSH0 DUP2 ISZERO ISZERO SWAP1 POP SWAP2 SWAP1 POP JUMP JUMPDEST PUSH2 0x116A DUP2 PUSH2 0x1156 JUMP JUMPDEST DUP2 EQ PUSH2 0x1174 JUMPI PUSH0 PUSH0 REVERT JUMPDEST POP JUMP JUMPDEST PUSH0 DUP2 MLOAD SWAP1 POP PUSH2 0x1185 DUP2 PUSH2 0x1161 JUMP JUMPDEST SWAP3 SWAP2 POP POP JUMP JUMPDEST PUSH0 PUSH1 0x20 DUP3 DUP5 SUB SLT ISZERO PUSH2 0x11A0 JUMPI PUSH2 0x119F PUSH2 0xF40 JUMP JUMPDEST JUMPDEST PUSH0 PUSH2 0x11AD DUP5 DUP3 DUP6 ADD PUSH2 0x1177 JUMP JUMPDEST SWAP2 POP POP SWAP3 SWAP2 POP POP JUMP JUMPDEST PUSH0 PUSH1 0x40 DUP3 ADD SWAP1 POP PUSH2 0x11C9 PUSH0 DUP4 ADD DUP6 PUSH2 0xF18 JUMP JUMPDEST PUSH2 0x11D6 PUSH1 0x20 DUP4 ADD DUP5 PUSH2 0x1005 JUMP JUMPDEST SWAP4 SWAP3 POP POP POP JUMP JUMPDEST PUSH0 DUP2 MLOAD SWAP1 POP PUSH2 0x11EB DUP2 PUSH2 0xF77 JUMP JUMPDEST SWAP3 SWAP2 POP POP JUMP JUMPDEST PUSH0 PUSH1 0x20 DUP3 DUP5 SUB SLT ISZERO PUSH2 0x1206 JUMPI PUSH2 0x1205 PUSH2 0xF40 JUMP JUMPDEST JUMPDEST PUSH0 PUSH2 0x1213 DUP5 DUP3 DUP6 ADD PUSH2 0x11DD JUMP JUMPDEST SWAP2 POP POP SWAP3 SWAP2 POP POP JUMP JUMPDEST PUSH0 PUSH1 0x80 DUP3 ADD SWAP1 POP PUSH2 0x122F PUSH0 DUP4 ADD DUP8 PUSH2 0xF18 JUMP JUMPDEST PUSH2 0x123C PUSH1 0x20 DUP4 ADD DUP7 PUSH2 0x1005 JUMP JUMPDEST PUSH2 0x1249 PUSH1 0x40 DUP4 ADD DUP6 PUSH2 0xF18 JUMP JUMPDEST PUSH2 0x1256 PUSH1 0x60 DUP4 ADD DUP5 PUSH2 0x1005 JUMP JUMPDEST SWAP6 SWAP5 POP POP POP POP POP JUMP JUMPDEST PUSH32 0x4E487B7100000000000000000000000000000000000000000000000000000000 PUSH0 MSTORE PUSH1 0x11 PUSH1 0x4 MSTORE PUSH1 0x24 PUSH0 REVERT JUMPDEST PUSH0 PUSH2 0x1296 DUP3 PUSH2 0xF6E JUMP JUMPDEST SWAP2 POP PUSH2 0x12A1 DUP4 PUSH2 0xF6E JUMP JUMPDEST SWAP3 POP DUP3 DUP3 ADD SWAP1 POP DUP1 DUP3 GT ISZERO PUSH2 0x12B9 JUMPI PUSH2 0x12B8 PUSH2 0x125F JUMP JUMPDEST JUMPDEST SWAP3 SWAP2 POP POP JUMP JUMPDEST PUSH0 PUSH1 0x40 DUP3 ADD SWAP1 POP PUSH2 0x12D2 PUSH0 DUP4 ADD DUP6 PUSH2 0x1005 JUMP JUMPDEST PUSH2 0x12DF PUSH1 0x20 DUP4 ADD DUP5 PUSH2 0x1005 JUMP JUMPDEST SWAP4 SWAP3 POP POP POP JUMP JUMPDEST PUSH0 PUSH2 0x12F0 DUP3 PUSH2 0xF6E JUMP JUMPDEST SWAP2 POP PUSH2 0x12FB DUP4 PUSH2 0xF6E JUMP JUMPDEST SWAP3 POP DUP3 DUP3 MUL PUSH2 0x1309 DUP2 PUSH2 0xF6E JUMP JUMPDEST SWAP2 POP DUP3 DUP3 DIV DUP5 EQ DUP4 ISZERO OR PUSH2 0x1320 JUMPI PUSH2 0x131F PUSH2 0x125F JUMP JUMPDEST JUMPDEST POP SWAP3 SWAP2 POP POP JUMP JUMPDEST PUSH32 0x4E487B7100000000000000000000000000000000000000000000000000000000 PUSH0 MSTORE PUSH1 0x12 PUSH1 0x4 MSTORE PUSH1 0x24 PUSH0 REVERT JUMPDEST PUSH0 PUSH2 0x135E DUP3 PUSH2 0xF6E JUMP JUMPDEST SWAP2 POP PUSH2 0x1369 DUP4 PUSH2 0xF6E JUMP JUMPDEST SWAP3 POP DUP3 PUSH2 0x1379 JUMPI PUSH2 0x1378 PUSH2 0x1327 JUMP JUMPDEST JUMPDEST DUP3 DUP3 DIV SWAP1 POP SWAP3 SWAP2 POP POP JUMP JUMPDEST PUSH32 0x6F766572666C6F77000000000000000000000000000000000000000000000000 PUSH0 DUP3 ADD MSTORE POP JUMP JUMPDEST PUSH0 PUSH2 0x13B8 PUSH1 0x8 DUP4 PUSH2 0x10A9 JUMP JUMPDEST SWAP2 POP PUSH2 0x13C3 DUP3 PUSH2 0x1384 JUMP JUMPDEST PUSH1 0x20 DUP3 ADD SWAP1 POP SWAP2 SWAP1 POP JUMP JUMPDEST PUSH0 PUSH1 0x20 DUP3 ADD SWAP1 POP DUP2 DUP2 SUB PUSH0 DUP4 ADD MSTORE PUSH2 0x13E5 DUP2 PUSH2 0x13AC JUMP JUMPDEST SWAP1 POP SWAP2 SWAP1 POP JUMP JUMPDEST PUSH0 PUSH1 0x40 DUP3 ADD SWAP1 POP PUSH2 0x13FF PUSH0 DUP4 ADD DUP6 PUSH2 0xE86 JUMP JUMPDEST PUSH2 0x140C PUSH1 0x20 DUP4 ADD DUP5 PUSH2 0xE86 JUMP JUMPDEST SWAP4 SWAP3 POP POP POP JUMP INVALID LOG2 PUSH5 0x6970667358 0x22 SLT KECCAK256 SMOD 0xC6 0xAE GAS PUSH16 0x8C256B6285B01A5950925742DA460E7C PUSH31 0xEE23F29DDD5E53BF16EA64736F6C634300081E003300000000000000000000 "
				},
				"gasEstimates": {
					"creation": {
						"codeDepositCost": "1038600",
						"executionCost": "infinite",
						"totalCost": "infinite"
					},
					"external": {
						"addLiquidity(uint256,uint256)": "infinite",
						"getAmountOut(address,uint256)": "infinite",
						"getReserves()": "infinite",
						"swapExact(address,uint256,uint256,address)": "infinite",
						"token0()": "infinite",
						"token1()": "infinite"
					},
					"internal": {
						"_update(uint256,uint256)": "infinite"
					}
				},
				"methodIdentifiers": {
					"addLiquidity(uint256,uint256)": "9cd441da",
					"getAmountOut(address,uint256)": "ca706bcf",
					"getReserves()": "0902f1ac",
					"swapExact(address,uint256,uint256,address)": "6d8bb4a3",
					"token0()": "0dfe1681",
					"token1()": "d21220a7"
				}
			},
			"storageLayout": {
				"storage": [
					{
						"astId": 64,
						"contract": "ammPair.sol:AmmPair",
						"label": "reserve0",
						"offset": 0,
						"slot": "0",
						"type": "t_uint112"
					},
					{
						"astId": 66,
						"contract": "ammPair.sol:AmmPair",
						"label": "reserve1",
						"offset": 14,
						"slot": "0",
						"type": "t_uint112"
					},
					{
						"astId": 68,
						"contract": "ammPair.sol:AmmPair",
						"label": "blockTimestampLast",
						"offset": 28,
						"slot": "0",
						"type": "t_uint32"
					}
				],
				"types": {
					"t_uint112": {
						"encoding": "inplace",
						"label": "uint112",
						"numberOfBytes": "14"
					},
					"t_uint32": {
						"encoding": "inplace",
						"label": "uint32",
						"numberOfBytes": "4"
					}
				}
			},
			"userdoc": {
				"kind": "user",
				"methods": {},
				"version": 1
			}
		}
	}
}